{
	"Demo01.sol": {
		"Demo01": {
			"abi": [
				{
					"inputs": [
						{
							"internalType": "uint256[]",
							"name": "data",
							"type": "uint256[]"
						}
					],
					"name": "getSum",
					"outputs": [],
					"stateMutability": "nonpayable",
					"type": "function"
				},
				{
					"inputs": [],
					"name": "sum",
					"outputs": [
						{
							"internalType": "uint256",
							"name": "",
							"type": "uint256"
						}
					],
					"stateMutability": "view",
					"type": "function"
				}
			],
			"devdoc": {
				"kind": "dev",
				"methods": {},
				"version": 1
			},
			"evm": {
				"assembly": "    /* \"Demo01.sol\":57:246  contract Demo01 {... */\n  mstore(0x40, 0x80)\n    /* \"Demo01.sol\":97:98  0 */\n  0x00\n    /* \"Demo01.sol\":79:98  uint public sum = 0 */\n  0x00\n  sstore\n    /* \"Demo01.sol\":57:246  contract Demo01 {... */\n  callvalue\n  dup1\n  iszero\n  tag_1\n  jumpi\n  revert(0x00, 0x00)\ntag_1:\n  pop\n  dataSize(sub_0)\n  dup1\n  dataOffset(sub_0)\n  0x00\n  codecopy\n  0x00\n  return\nstop\n\nsub_0: assembly {\n        /* \"Demo01.sol\":57:246  contract Demo01 {... */\n      mstore(0x40, 0x80)\n      callvalue\n      dup1\n      iszero\n      tag_1\n      jumpi\n      revert(0x00, 0x00)\n    tag_1:\n      pop\n      jumpi(tag_2, lt(calldatasize, 0x04))\n      shr(0xe0, calldataload(0x00))\n      dup1\n      0x853255cc\n      eq\n      tag_3\n      jumpi\n      dup1\n      0xccb8c1e0\n      eq\n      tag_4\n      jumpi\n    tag_2:\n      revert(0x00, 0x00)\n        /* \"Demo01.sol\":79:98  uint public sum = 0 */\n    tag_3:\n      tag_5\n      tag_6\n      jump\t// in\n    tag_5:\n      mload(0x40)\n      tag_7\n      swap2\n      swap1\n      tag_8\n      jump\t// in\n    tag_7:\n      mload(0x40)\n      dup1\n      swap2\n      sub\n      swap1\n      return\n        /* \"Demo01.sol\":105:244  function getSum(uint[] calldata data) public {... */\n    tag_4:\n      tag_9\n      0x04\n      dup1\n      calldatasize\n      sub\n      dup2\n      add\n      swap1\n      tag_10\n      swap2\n      swap1\n      tag_11\n      jump\t// in\n    tag_10:\n      tag_12\n      jump\t// in\n    tag_9:\n      stop\n        /* \"Demo01.sol\":79:98  uint public sum = 0 */\n    tag_6:\n      sload(0x00)\n      dup2\n      jump\t// out\n        /* \"Demo01.sol\":105:244  function getSum(uint[] calldata data) public {... */\n    tag_12:\n        /* \"Demo01.sol\":165:171  uint i */\n      0x00\n        /* \"Demo01.sol\":174:175  0 */\n      0x00\n        /* \"Demo01.sol\":165:175  uint i = 0 */\n      swap1\n      pop\n        /* \"Demo01.sol\":160:238  for (uint i = 0; i < data.length; i++) {... */\n    tag_14:\n        /* \"Demo01.sol\":181:185  data */\n      dup3\n      dup3\n        /* \"Demo01.sol\":181:192  data.length */\n      swap1\n      pop\n        /* \"Demo01.sol\":177:178  i */\n      dup2\n        /* \"Demo01.sol\":177:192  i < data.length */\n      lt\n        /* \"Demo01.sol\":160:238  for (uint i = 0; i < data.length; i++) {... */\n      iszero\n      tag_15\n      jumpi\n        /* \"Demo01.sol\":220:224  data */\n      dup3\n      dup3\n        /* \"Demo01.sol\":225:226  i */\n      dup3\n        /* \"Demo01.sol\":220:227  data[i] */\n      dup2\n      dup2\n      lt\n      tag_17\n      jumpi\n      tag_18\n      tag_19\n      jump\t// in\n    tag_18:\n    tag_17:\n      swap1\n      pop\n      0x20\n      mul\n      add\n      calldataload\n        /* \"Demo01.sol\":213:216  sum */\n      0x00\n      0x00\n        /* \"Demo01.sol\":213:227  sum += data[i] */\n      dup3\n      dup3\n      sload\n      tag_20\n      swap2\n      swap1\n      tag_21\n      jump\t// in\n    tag_20:\n      swap3\n      pop\n      pop\n      dup2\n      swap1\n      sstore\n      pop\n        /* \"Demo01.sol\":194:197  i++ */\n      dup1\n      dup1\n      0x01\n      add\n      swap2\n      pop\n      pop\n        /* \"Demo01.sol\":160:238  for (uint i = 0; i < data.length; i++) {... */\n      jump(tag_14)\n    tag_15:\n      pop\n        /* \"Demo01.sol\":105:244  function getSum(uint[] calldata data) public {... */\n      pop\n      pop\n      jump\t// out\n        /* \"#utility.yul\":7:84   */\n    tag_22:\n        /* \"#utility.yul\":44:51   */\n      0x00\n        /* \"#utility.yul\":73:78   */\n      dup2\n        /* \"#utility.yul\":62:78   */\n      swap1\n      pop\n        /* \"#utility.yul\":7:84   */\n      swap2\n      swap1\n      pop\n      jump\t// out\n        /* \"#utility.yul\":90:208   */\n    tag_23:\n        /* \"#utility.yul\":177:201   */\n      tag_35\n        /* \"#utility.yul\":195:200   */\n      dup2\n        /* \"#utility.yul\":177:201   */\n      tag_22\n      jump\t// in\n    tag_35:\n        /* \"#utility.yul\":172:175   */\n      dup3\n        /* \"#utility.yul\":165:202   */\n      mstore\n        /* \"#utility.yul\":90:208   */\n      pop\n      pop\n      jump\t// out\n        /* \"#utility.yul\":214:436   */\n    tag_8:\n        /* \"#utility.yul\":307:311   */\n      0x00\n        /* \"#utility.yul\":345:347   */\n      0x20\n        /* \"#utility.yul\":334:343   */\n      dup3\n        /* \"#utility.yul\":330:348   */\n      add\n        /* \"#utility.yul\":322:348   */\n      swap1\n      pop\n        /* \"#utility.yul\":358:429   */\n      tag_37\n        /* \"#utility.yul\":426:427   */\n      0x00\n        /* \"#utility.yul\":415:424   */\n      dup4\n        /* \"#utility.yul\":411:428   */\n      add\n        /* \"#utility.yul\":402:408   */\n      dup5\n        /* \"#utility.yul\":358:429   */\n      tag_23\n      jump\t// in\n    tag_37:\n        /* \"#utility.yul\":214:436   */\n      swap3\n      swap2\n      pop\n      pop\n      jump\t// out\n        /* \"#utility.yul\":523:640   */\n    tag_25:\n        /* \"#utility.yul\":632:633   */\n      0x00\n        /* \"#utility.yul\":629:630   */\n      0x00\n        /* \"#utility.yul\":622:634   */\n      revert\n        /* \"#utility.yul\":646:763   */\n    tag_26:\n        /* \"#utility.yul\":755:756   */\n      0x00\n        /* \"#utility.yul\":752:753   */\n      0x00\n        /* \"#utility.yul\":745:757   */\n      revert\n        /* \"#utility.yul\":769:886   */\n    tag_27:\n        /* \"#utility.yul\":878:879   */\n      0x00\n        /* \"#utility.yul\":875:876   */\n      0x00\n        /* \"#utility.yul\":868:880   */\n      revert\n        /* \"#utility.yul\":892:1009   */\n    tag_28:\n        /* \"#utility.yul\":1001:1002   */\n      0x00\n        /* \"#utility.yul\":998:999   */\n      0x00\n        /* \"#utility.yul\":991:1003   */\n      revert\n        /* \"#utility.yul\":1015:1132   */\n    tag_29:\n        /* \"#utility.yul\":1124:1125   */\n      0x00\n        /* \"#utility.yul\":1121:1122   */\n      0x00\n        /* \"#utility.yul\":1114:1126   */\n      revert\n        /* \"#utility.yul\":1155:1723   */\n    tag_30:\n        /* \"#utility.yul\":1228:1236   */\n      0x00\n        /* \"#utility.yul\":1238:1244   */\n      0x00\n        /* \"#utility.yul\":1288:1291   */\n      dup4\n        /* \"#utility.yul\":1281:1285   */\n      0x1f\n        /* \"#utility.yul\":1273:1279   */\n      dup5\n        /* \"#utility.yul\":1269:1286   */\n      add\n        /* \"#utility.yul\":1265:1292   */\n      slt\n        /* \"#utility.yul\":1255:1377   */\n      tag_45\n      jumpi\n        /* \"#utility.yul\":1296:1375   */\n      tag_46\n      tag_27\n      jump\t// in\n    tag_46:\n        /* \"#utility.yul\":1255:1377   */\n    tag_45:\n        /* \"#utility.yul\":1409:1415   */\n      dup3\n        /* \"#utility.yul\":1396:1416   */\n      calldataload\n        /* \"#utility.yul\":1386:1416   */\n      swap1\n      pop\n        /* \"#utility.yul\":1439:1457   */\n      0xffffffffffffffff\n        /* \"#utility.yul\":1431:1437   */\n      dup2\n        /* \"#utility.yul\":1428:1458   */\n      gt\n        /* \"#utility.yul\":1425:1542   */\n      iszero\n      tag_47\n      jumpi\n        /* \"#utility.yul\":1461:1540   */\n      tag_48\n      tag_28\n      jump\t// in\n    tag_48:\n        /* \"#utility.yul\":1425:1542   */\n    tag_47:\n        /* \"#utility.yul\":1575:1579   */\n      0x20\n        /* \"#utility.yul\":1567:1573   */\n      dup4\n        /* \"#utility.yul\":1563:1580   */\n      add\n        /* \"#utility.yul\":1551:1580   */\n      swap2\n      pop\n        /* \"#utility.yul\":1629:1632   */\n      dup4\n        /* \"#utility.yul\":1621:1625   */\n      0x20\n        /* \"#utility.yul\":1613:1619   */\n      dup3\n        /* \"#utility.yul\":1609:1626   */\n      mul\n        /* \"#utility.yul\":1599:1607   */\n      dup4\n        /* \"#utility.yul\":1595:1627   */\n      add\n        /* \"#utility.yul\":1592:1633   */\n      gt\n        /* \"#utility.yul\":1589:1717   */\n      iszero\n      tag_49\n      jumpi\n        /* \"#utility.yul\":1636:1715   */\n      tag_50\n      tag_29\n      jump\t// in\n    tag_50:\n        /* \"#utility.yul\":1589:1717   */\n    tag_49:\n        /* \"#utility.yul\":1155:1723   */\n      swap3\n      pop\n      swap3\n      swap1\n      pop\n      jump\t// out\n        /* \"#utility.yul\":1729:2288   */\n    tag_11:\n        /* \"#utility.yul\":1815:1821   */\n      0x00\n        /* \"#utility.yul\":1823:1829   */\n      0x00\n        /* \"#utility.yul\":1872:1874   */\n      0x20\n        /* \"#utility.yul\":1860:1869   */\n      dup4\n        /* \"#utility.yul\":1851:1858   */\n      dup6\n        /* \"#utility.yul\":1847:1870   */\n      sub\n        /* \"#utility.yul\":1843:1875   */\n      slt\n        /* \"#utility.yul\":1840:1959   */\n      iszero\n      tag_52\n      jumpi\n        /* \"#utility.yul\":1878:1957   */\n      tag_53\n      tag_25\n      jump\t// in\n    tag_53:\n        /* \"#utility.yul\":1840:1959   */\n    tag_52:\n        /* \"#utility.yul\":2026:2027   */\n      0x00\n        /* \"#utility.yul\":2015:2024   */\n      dup4\n        /* \"#utility.yul\":2011:2028   */\n      add\n        /* \"#utility.yul\":1998:2029   */\n      calldataload\n        /* \"#utility.yul\":2056:2074   */\n      0xffffffffffffffff\n        /* \"#utility.yul\":2048:2054   */\n      dup2\n        /* \"#utility.yul\":2045:2075   */\n      gt\n        /* \"#utility.yul\":2042:2159   */\n      iszero\n      tag_54\n      jumpi\n        /* \"#utility.yul\":2078:2157   */\n      tag_55\n      tag_26\n      jump\t// in\n    tag_55:\n        /* \"#utility.yul\":2042:2159   */\n    tag_54:\n        /* \"#utility.yul\":2191:2271   */\n      tag_56\n        /* \"#utility.yul\":2263:2270   */\n      dup6\n        /* \"#utility.yul\":2254:2260   */\n      dup3\n        /* \"#utility.yul\":2243:2252   */\n      dup7\n        /* \"#utility.yul\":2239:2261   */\n      add\n        /* \"#utility.yul\":2191:2271   */\n      tag_30\n      jump\t// in\n    tag_56:\n        /* \"#utility.yul\":2173:2271   */\n      swap3\n      pop\n      swap3\n      pop\n        /* \"#utility.yul\":1969:2281   */\n      pop\n        /* \"#utility.yul\":1729:2288   */\n      swap3\n      pop\n      swap3\n      swap1\n      pop\n      jump\t// out\n        /* \"#utility.yul\":2294:2474   */\n    tag_19:\n        /* \"#utility.yul\":2342:2419   */\n      0x4e487b7100000000000000000000000000000000000000000000000000000000\n        /* \"#utility.yul\":2339:2340   */\n      0x00\n        /* \"#utility.yul\":2332:2420   */\n      mstore\n        /* \"#utility.yul\":2439:2443   */\n      0x32\n        /* \"#utility.yul\":2436:2437   */\n      0x04\n        /* \"#utility.yul\":2429:2444   */\n      mstore\n        /* \"#utility.yul\":2463:2467   */\n      0x24\n        /* \"#utility.yul\":2460:2461   */\n      0x00\n        /* \"#utility.yul\":2453:2468   */\n      revert\n        /* \"#utility.yul\":2480:2660   */\n    tag_31:\n        /* \"#utility.yul\":2528:2605   */\n      0x4e487b7100000000000000000000000000000000000000000000000000000000\n        /* \"#utility.yul\":2525:2526   */\n      0x00\n        /* \"#utility.yul\":2518:2606   */\n      mstore\n        /* \"#utility.yul\":2625:2629   */\n      0x11\n        /* \"#utility.yul\":2622:2623   */\n      0x04\n        /* \"#utility.yul\":2615:2630   */\n      mstore\n        /* \"#utility.yul\":2649:2653   */\n      0x24\n        /* \"#utility.yul\":2646:2647   */\n      0x00\n        /* \"#utility.yul\":2639:2654   */\n      revert\n        /* \"#utility.yul\":2666:2857   */\n    tag_21:\n        /* \"#utility.yul\":2706:2709   */\n      0x00\n        /* \"#utility.yul\":2725:2745   */\n      tag_60\n        /* \"#utility.yul\":2743:2744   */\n      dup3\n        /* \"#utility.yul\":2725:2745   */\n      tag_22\n      jump\t// in\n    tag_60:\n        /* \"#utility.yul\":2720:2745   */\n      swap2\n      pop\n        /* \"#utility.yul\":2759:2779   */\n      tag_61\n        /* \"#utility.yul\":2777:2778   */\n      dup4\n        /* \"#utility.yul\":2759:2779   */\n      tag_22\n      jump\t// in\n    tag_61:\n        /* \"#utility.yul\":2754:2779   */\n      swap3\n      pop\n        /* \"#utility.yul\":2802:2803   */\n      dup3\n        /* \"#utility.yul\":2799:2800   */\n      dup3\n        /* \"#utility.yul\":2795:2804   */\n      add\n        /* \"#utility.yul\":2788:2804   */\n      swap1\n      pop\n        /* \"#utility.yul\":2823:2826   */\n      dup1\n        /* \"#utility.yul\":2820:2821   */\n      dup3\n        /* \"#utility.yul\":2817:2827   */\n      gt\n        /* \"#utility.yul\":2814:2850   */\n      iszero\n      tag_62\n      jumpi\n        /* \"#utility.yul\":2830:2848   */\n      tag_63\n      tag_31\n      jump\t// in\n    tag_63:\n        /* \"#utility.yul\":2814:2850   */\n    tag_62:\n        /* \"#utility.yul\":2666:2857   */\n      swap3\n      swap2\n      pop\n      pop\n      jump\t// out\n\n    auxdata: 0xa26469706673582212204f95873802d265da335961f0b539719a40c43dbc325455c6e44c710e1dfff6cc64736f6c634300081e0033\n}\n",
				"bytecode": {
					"linkReferences": {},
					"object": "60806040525f5f553480156011575f5ffd5b506102718061001f5f395ff3fe608060405234801561000f575f5ffd5b5060043610610034575f3560e01c8063853255cc14610038578063ccb8c1e014610056575b5f5ffd5b610040610072565b60405161004d91906100e1565b60405180910390f35b610070600480360381019061006b9190610163565b610077565b005b5f5481565b5f5f90505b828290508110156100c45782828281811061009a576100996101ae565b5b905060200201355f5f8282546100b09190610208565b92505081905550808060010191505061007c565b505050565b5f819050919050565b6100db816100c9565b82525050565b5f6020820190506100f45f8301846100d2565b92915050565b5f5ffd5b5f5ffd5b5f5ffd5b5f5ffd5b5f5ffd5b5f5f83601f84011261012357610122610102565b5b8235905067ffffffffffffffff8111156101405761013f610106565b5b60208301915083602082028301111561015c5761015b61010a565b5b9250929050565b5f5f60208385031215610179576101786100fa565b5b5f83013567ffffffffffffffff811115610196576101956100fe565b5b6101a28582860161010e565b92509250509250929050565b7f4e487b71000000000000000000000000000000000000000000000000000000005f52603260045260245ffd5b7f4e487b71000000000000000000000000000000000000000000000000000000005f52601160045260245ffd5b5f610212826100c9565b915061021d836100c9565b9250828201905080821115610235576102346101db565b5b9291505056fea26469706673582212204f95873802d265da335961f0b539719a40c43dbc325455c6e44c710e1dfff6cc64736f6c634300081e0033",
					"opcodes": "PUSH1 0x80 PUSH1 0x40 MSTORE PUSH0 PUSH0 SSTORE CALLVALUE DUP1 ISZERO PUSH1 0x11 JUMPI PUSH0 PUSH0 REVERT JUMPDEST POP PUSH2 0x271 DUP1 PUSH2 0x1F PUSH0 CODECOPY PUSH0 RETURN INVALID PUSH1 0x80 PUSH1 0x40 MSTORE CALLVALUE DUP1 ISZERO PUSH2 0xF JUMPI PUSH0 PUSH0 REVERT JUMPDEST POP PUSH1 0x4 CALLDATASIZE LT PUSH2 0x34 JUMPI PUSH0 CALLDATALOAD PUSH1 0xE0 SHR DUP1 PUSH4 0x853255CC EQ PUSH2 0x38 JUMPI DUP1 PUSH4 0xCCB8C1E0 EQ PUSH2 0x56 JUMPI JUMPDEST PUSH0 PUSH0 REVERT JUMPDEST PUSH2 0x40 PUSH2 0x72 JUMP JUMPDEST PUSH1 0x40 MLOAD PUSH2 0x4D SWAP2 SWAP1 PUSH2 0xE1 JUMP JUMPDEST PUSH1 0x40 MLOAD DUP1 SWAP2 SUB SWAP1 RETURN JUMPDEST PUSH2 0x70 PUSH1 0x4 DUP1 CALLDATASIZE SUB DUP2 ADD SWAP1 PUSH2 0x6B SWAP2 SWAP1 PUSH2 0x163 JUMP JUMPDEST PUSH2 0x77 JUMP JUMPDEST STOP JUMPDEST PUSH0 SLOAD DUP2 JUMP JUMPDEST PUSH0 PUSH0 SWAP1 POP JUMPDEST DUP3 DUP3 SWAP1 POP DUP2 LT ISZERO PUSH2 0xC4 JUMPI DUP3 DUP3 DUP3 DUP2 DUP2 LT PUSH2 0x9A JUMPI PUSH2 0x99 PUSH2 0x1AE JUMP JUMPDEST JUMPDEST SWAP1 POP PUSH1 0x20 MUL ADD CALLDATALOAD PUSH0 PUSH0 DUP3 DUP3 SLOAD PUSH2 0xB0 SWAP2 SWAP1 PUSH2 0x208 JUMP JUMPDEST SWAP3 POP POP DUP2 SWAP1 SSTORE POP DUP1 DUP1 PUSH1 0x1 ADD SWAP2 POP POP PUSH2 0x7C JUMP JUMPDEST POP POP POP JUMP JUMPDEST PUSH0 DUP2 SWAP1 POP SWAP2 SWAP1 POP JUMP JUMPDEST PUSH2 0xDB DUP2 PUSH2 0xC9 JUMP JUMPDEST DUP3 MSTORE POP POP JUMP JUMPDEST PUSH0 PUSH1 0x20 DUP3 ADD SWAP1 POP PUSH2 0xF4 PUSH0 DUP4 ADD DUP5 PUSH2 0xD2 JUMP JUMPDEST SWAP3 SWAP2 POP POP JUMP JUMPDEST PUSH0 PUSH0 REVERT JUMPDEST PUSH0 PUSH0 REVERT JUMPDEST PUSH0 PUSH0 REVERT JUMPDEST PUSH0 PUSH0 REVERT JUMPDEST PUSH0 PUSH0 REVERT JUMPDEST PUSH0 PUSH0 DUP4 PUSH1 0x1F DUP5 ADD SLT PUSH2 0x123 JUMPI PUSH2 0x122 PUSH2 0x102 JUMP JUMPDEST JUMPDEST DUP3 CALLDATALOAD SWAP1 POP PUSH8 0xFFFFFFFFFFFFFFFF DUP2 GT ISZERO PUSH2 0x140 JUMPI PUSH2 0x13F PUSH2 0x106 JUMP JUMPDEST JUMPDEST PUSH1 0x20 DUP4 ADD SWAP2 POP DUP4 PUSH1 0x20 DUP3 MUL DUP4 ADD GT ISZERO PUSH2 0x15C JUMPI PUSH2 0x15B PUSH2 0x10A JUMP JUMPDEST JUMPDEST SWAP3 POP SWAP3 SWAP1 POP JUMP JUMPDEST PUSH0 PUSH0 PUSH1 0x20 DUP4 DUP6 SUB SLT ISZERO PUSH2 0x179 JUMPI PUSH2 0x178 PUSH2 0xFA JUMP JUMPDEST JUMPDEST PUSH0 DUP4 ADD CALLDATALOAD PUSH8 0xFFFFFFFFFFFFFFFF DUP2 GT ISZERO PUSH2 0x196 JUMPI PUSH2 0x195 PUSH2 0xFE JUMP JUMPDEST JUMPDEST PUSH2 0x1A2 DUP6 DUP3 DUP7 ADD PUSH2 0x10E JUMP JUMPDEST SWAP3 POP SWAP3 POP POP SWAP3 POP SWAP3 SWAP1 POP JUMP JUMPDEST PUSH32 0x4E487B7100000000000000000000000000000000000000000000000000000000 PUSH0 MSTORE PUSH1 0x32 PUSH1 0x4 MSTORE PUSH1 0x24 PUSH0 REVERT JUMPDEST PUSH32 0x4E487B7100000000000000000000000000000000000000000000000000000000 PUSH0 MSTORE PUSH1 0x11 PUSH1 0x4 MSTORE PUSH1 0x24 PUSH0 REVERT JUMPDEST PUSH0 PUSH2 0x212 DUP3 PUSH2 0xC9 JUMP JUMPDEST SWAP2 POP PUSH2 0x21D DUP4 PUSH2 0xC9 JUMP JUMPDEST SWAP3 POP DUP3 DUP3 ADD SWAP1 POP DUP1 DUP3 GT ISZERO PUSH2 0x235 JUMPI PUSH2 0x234 PUSH2 0x1DB JUMP JUMPDEST JUMPDEST SWAP3 SWAP2 POP POP JUMP INVALID LOG2 PUSH5 0x6970667358 0x22 SLT KECCAK256 0x4F SWAP6 DUP8 CODESIZE MUL 0xD2 PUSH6 0xDA335961F0B5 CODECOPY PUSH18 0x9A40C43DBC325455C6E44C710E1DFFF6CC64 PUSH20 0x6F6C634300081E00330000000000000000000000 "
				},
				"gasEstimates": {
					"creation": {
						"codeDepositCost": "125000",
						"executionCost": "5173",
						"totalCost": "130173"
					},
					"external": {
						"getSum(uint256[])": "infinite",
						"sum()": "2402"
					}
				},
				"methodIdentifiers": {
					"getSum(uint256[])": "ccb8c1e0",
					"sum()": "853255cc"
				}
			},
			"storageLayout": {
				"storage": [
					{
						"astId": 4,
						"contract": "Demo01.sol:Demo01",
						"label": "sum",
						"offset": 0,
						"slot": "0",
						"type": "t_uint256"
					}
				],
				"types": {
					"t_uint256": {
						"encoding": "inplace",
						"label": "uint256",
						"numberOfBytes": "32"
					}
				}
			},
			"userdoc": {
				"kind": "user",
				"methods": {},
				"version": 1
			}
		}
	}
}