{
	"testBank.sol": {
		"Bank": {
			"abi": [
				{
					"inputs": [],
					"stateMutability": "nonpayable",
					"type": "constructor"
				},
				{
					"inputs": [],
					"name": "admin",
					"outputs": [
						{
							"internalType": "address",
							"name": "",
							"type": "address"
						}
					],
					"stateMutability": "view",
					"type": "function"
				},
				{
					"inputs": [
						{
							"internalType": "address",
							"name": "",
							"type": "address"
						}
					],
					"name": "balances",
					"outputs": [
						{
							"internalType": "uint256",
							"name": "",
							"type": "uint256"
						}
					],
					"stateMutability": "view",
					"type": "function"
				},
				{
					"inputs": [
						{
							"internalType": "uint256",
							"name": "",
							"type": "uint256"
						}
					],
					"name": "depositors",
					"outputs": [
						{
							"internalType": "address",
							"name": "",
							"type": "address"
						}
					],
					"stateMutability": "view",
					"type": "function"
				},
				{
					"inputs": [],
					"name": "getTop3Depositors",
					"outputs": [
						{
							"components": [
								{
									"internalType": "address",
									"name": "user",
									"type": "address"
								},
								{
									"internalType": "uint256",
									"name": "amount",
									"type": "uint256"
								}
							],
							"internalType": "struct Bank.DepositInfo[3]",
							"name": "",
							"type": "tuple[3]"
						}
					],
					"stateMutability": "view",
					"type": "function"
				},
				{
					"inputs": [],
					"name": "withdraw",
					"outputs": [],
					"stateMutability": "nonpayable",
					"type": "function"
				},
				{
					"stateMutability": "payable",
					"type": "receive"
				}
			],
			"devdoc": {
				"kind": "dev",
				"methods": {},
				"version": 1
			},
			"evm": {
				"assembly": "    /* \"testBank.sol\":60:1812  contract Bank {... */\n  mstore(0x40, 0x80)\n    /* \"testBank.sol\":427:478  constructor() {... */\n  callvalue\n  dup1\n  iszero\n  tag_1\n  jumpi\n  revert(0x00, 0x00)\ntag_1:\n  pop\n    /* \"testBank.sol\":460:470  msg.sender */\n  caller\n    /* \"testBank.sol\":452:457  admin */\n  0x00\n  0x00\n    /* \"testBank.sol\":452:470  admin = msg.sender */\n  0x0100\n  exp\n  dup2\n  sload\n  dup2\n  0xffffffffffffffffffffffffffffffffffffffff\n  mul\n  not\n  and\n  swap1\n  dup4\n  0xffffffffffffffffffffffffffffffffffffffff\n  and\n  mul\n  or\n  swap1\n  sstore\n  pop\n    /* \"testBank.sol\":60:1812  contract Bank {... */\n  dataSize(sub_0)\n  dup1\n  dataOffset(sub_0)\n  0x00\n  codecopy\n  0x00\n  return\nstop\n\nsub_0: assembly {\n        /* \"testBank.sol\":60:1812  contract Bank {... */\n      mstore(0x40, 0x80)\n      jumpi(tag_1, lt(calldatasize, 0x04))\n      shr(0xe0, calldataload(0x00))\n      dup1\n      0x27e235e3\n      eq\n      tag_3\n      jumpi\n      dup1\n      0x3ccfd60b\n      eq\n      tag_4\n      jumpi\n      dup1\n      0xd26c0943\n      eq\n      tag_5\n      jumpi\n      dup1\n      0xe4b2fb79\n      eq\n      tag_6\n      jumpi\n      dup1\n      0xf851a440\n      eq\n      tag_7\n      jumpi\n      jump(tag_2)\n    tag_1:\n      jumpi(tag_2, calldatasize)\n        /* \"testBank.sol\":758:759  0 */\n      0x00\n        /* \"testBank.sol\":734:742  balances */\n      0x01\n        /* \"testBank.sol\":734:754  balances[msg.sender] */\n      0x00\n        /* \"testBank.sol\":743:753  msg.sender */\n      caller\n        /* \"testBank.sol\":734:754  balances[msg.sender] */\n      0xffffffffffffffffffffffffffffffffffffffff\n      and\n      0xffffffffffffffffffffffffffffffffffffffff\n      and\n      dup2\n      mstore\n      0x20\n      add\n      swap1\n      dup2\n      mstore\n      0x20\n      add\n      0x00\n      keccak256\n      sload\n        /* \"testBank.sol\":734:759  balances[msg.sender] == 0 */\n      sub\n        /* \"testBank.sol\":730:815  if (balances[msg.sender] == 0) {... */\n      tag_10\n      jumpi\n        /* \"testBank.sol\":776:786  depositors */\n      0x02\n        /* \"testBank.sol\":792:802  msg.sender */\n      caller\n        /* \"testBank.sol\":776:803  depositors.push(msg.sender) */\n      swap1\n      dup1\n      0x01\n      dup2\n      sload\n      add\n      dup1\n      dup3\n      sstore\n      dup1\n      swap2\n      pop\n      pop\n      0x01\n      swap1\n      sub\n      swap1\n      0x00\n      mstore\n      keccak256(0x00, 0x20)\n      add\n      0x00\n      swap1\n      swap2\n      swap1\n      swap2\n      swap1\n      swap2\n      0x0100\n      exp\n      dup2\n      sload\n      dup2\n      0xffffffffffffffffffffffffffffffffffffffff\n      mul\n      not\n      and\n      swap1\n      dup4\n      0xffffffffffffffffffffffffffffffffffffffff\n      and\n      mul\n      or\n      swap1\n      sstore\n      pop\n        /* \"testBank.sol\":730:815  if (balances[msg.sender] == 0) {... */\n    tag_10:\n        /* \"testBank.sol\":849:858  msg.value */\n      callvalue\n        /* \"testBank.sol\":825:833  balances */\n      0x01\n        /* \"testBank.sol\":825:845  balances[msg.sender] */\n      0x00\n        /* \"testBank.sol\":834:844  msg.sender */\n      caller\n        /* \"testBank.sol\":825:845  balances[msg.sender] */\n      0xffffffffffffffffffffffffffffffffffffffff\n      and\n      0xffffffffffffffffffffffffffffffffffffffff\n      and\n      dup2\n      mstore\n      0x20\n      add\n      swap1\n      dup2\n      mstore\n      0x20\n      add\n      0x00\n      keccak256\n      0x00\n        /* \"testBank.sol\":825:858  balances[msg.sender] += msg.value */\n      dup3\n      dup3\n      sload\n      tag_12\n      swap2\n      swap1\n      tag_13\n      jump\t// in\n    tag_12:\n      swap3\n      pop\n      pop\n      dup2\n      swap1\n      sstore\n      stop\n        /* \"testBank.sol\":60:1812  contract Bank {... */\n    tag_2:\n      revert(0x00, 0x00)\n        /* \"testBank.sol\":176:219  mapping(address => uint256) public balances */\n    tag_3:\n      callvalue\n      dup1\n      iszero\n      tag_14\n      jumpi\n      revert(0x00, 0x00)\n    tag_14:\n      pop\n      tag_15\n      0x04\n      dup1\n      calldatasize\n      sub\n      dup2\n      add\n      swap1\n      tag_16\n      swap2\n      swap1\n      tag_17\n      jump\t// in\n    tag_16:\n      tag_18\n      jump\t// in\n    tag_15:\n      mload(0x40)\n      tag_19\n      swap2\n      swap1\n      tag_20\n      jump\t// in\n    tag_19:\n      mload(0x40)\n      dup1\n      swap2\n      sub\n      swap1\n      return\n        /* \"testBank.sol\":904:1008  function withdraw() external onlyAdmin {... */\n    tag_4:\n      callvalue\n      dup1\n      iszero\n      tag_21\n      jumpi\n      revert(0x00, 0x00)\n    tag_21:\n      pop\n      tag_22\n      tag_23\n      jump\t// in\n    tag_22:\n      stop\n        /* \"testBank.sol\":1050:1809  function getTop3Depositors() external view returns (DepositInfo[3] memory) {... */\n    tag_5:\n      callvalue\n      dup1\n      iszero\n      tag_24\n      jumpi\n      revert(0x00, 0x00)\n    tag_24:\n      pop\n      tag_25\n      tag_26\n      jump\t// in\n    tag_25:\n      mload(0x40)\n      tag_27\n      swap2\n      swap1\n      tag_28\n      jump\t// in\n    tag_27:\n      mload(0x40)\n      dup1\n      swap2\n      sub\n      swap1\n      return\n        /* \"testBank.sol\":274:301  address[] public depositors */\n    tag_6:\n      callvalue\n      dup1\n      iszero\n      tag_29\n      jumpi\n      revert(0x00, 0x00)\n    tag_29:\n      pop\n      tag_30\n      0x04\n      dup1\n      calldatasize\n      sub\n      dup2\n      add\n      swap1\n      tag_31\n      swap2\n      swap1\n      tag_32\n      jump\t// in\n    tag_31:\n      tag_33\n      jump\t// in\n    tag_30:\n      mload(0x40)\n      tag_34\n      swap2\n      swap1\n      tag_35\n      jump\t// in\n    tag_34:\n      mload(0x40)\n      dup1\n      swap2\n      sub\n      swap1\n      return\n        /* \"testBank.sol\":105:125  address public admin */\n    tag_7:\n      callvalue\n      dup1\n      iszero\n      tag_36\n      jumpi\n      revert(0x00, 0x00)\n    tag_36:\n      pop\n      tag_37\n      tag_38\n      jump\t// in\n    tag_37:\n      mload(0x40)\n      tag_39\n      swap2\n      swap1\n      tag_35\n      jump\t// in\n    tag_39:\n      mload(0x40)\n      dup1\n      swap2\n      sub\n      swap1\n      return\n        /* \"testBank.sol\":176:219  mapping(address => uint256) public balances */\n    tag_18:\n      mstore(0x20, 0x01)\n      dup1\n      0x00\n      mstore\n      keccak256(0x00, 0x40)\n      0x00\n      swap2\n      pop\n      swap1\n      pop\n      sload\n      dup2\n      jump\t// out\n        /* \"testBank.sol\":904:1008  function withdraw() external onlyAdmin {... */\n    tag_23:\n        /* \"testBank.sol\":594:599  admin */\n      0x00\n      0x00\n      swap1\n      sload\n      swap1\n      0x0100\n      exp\n      swap1\n      div\n      0xffffffffffffffffffffffffffffffffffffffff\n      and\n        /* \"testBank.sol\":580:599  msg.sender == admin */\n      0xffffffffffffffffffffffffffffffffffffffff\n      and\n        /* \"testBank.sol\":580:590  msg.sender */\n      caller\n        /* \"testBank.sol\":580:599  msg.sender == admin */\n      0xffffffffffffffffffffffffffffffffffffffff\n      and\n      eq\n        /* \"testBank.sol\":572:628  require(msg.sender == admin, \"Only admin can call this\") */\n      tag_41\n      jumpi\n      mload(0x40)\n      0x08c379a000000000000000000000000000000000000000000000000000000000\n      dup2\n      mstore\n      0x04\n      add\n      tag_42\n      swap1\n      tag_43\n      jump\t// in\n    tag_42:\n      mload(0x40)\n      dup1\n      swap2\n      sub\n      swap1\n      revert\n    tag_41:\n        /* \"testBank.sol\":962:967  admin */\n      0x00\n      0x00\n      swap1\n      sload\n      swap1\n      0x0100\n      exp\n      swap1\n      div\n      0xffffffffffffffffffffffffffffffffffffffff\n      and\n        /* \"testBank.sol\":954:977  payable(admin).transfer */\n      0xffffffffffffffffffffffffffffffffffffffff\n      and\n        /* \"testBank.sol\":954:1000  payable(admin).transfer(address(this).balance) */\n      0x08fc\n        /* \"testBank.sol\":978:999  address(this).balance */\n      selfbalance\n        /* \"testBank.sol\":954:1000  payable(admin).transfer(address(this).balance) */\n      swap1\n      dup2\n      iszero\n      mul\n      swap1\n      mload(0x40)\n      0x00\n      mload(0x40)\n      dup1\n      dup4\n      sub\n      dup2\n      dup6\n      dup9\n      dup9\n      call\n      swap4\n      pop\n      pop\n      pop\n      pop\n      iszero\n      dup1\n      iszero\n      tag_46\n      jumpi\n      returndatacopy(0x00, 0x00, returndatasize)\n      revert(0x00, returndatasize)\n    tag_46:\n      pop\n        /* \"testBank.sol\":904:1008  function withdraw() external onlyAdmin {... */\n      jump\t// out\n        /* \"testBank.sol\":1050:1809  function getTop3Depositors() external view returns (DepositInfo[3] memory) {... */\n    tag_26:\n        /* \"testBank.sol\":1102:1123  DepositInfo[3] memory */\n      tag_47\n      tag_48\n      jump\t// in\n    tag_47:\n        /* \"testBank.sol\":1136:1162  DepositInfo[3] memory top3 */\n      tag_50\n      tag_48\n      jump\t// in\n    tag_50:\n        /* \"testBank.sol\":1188:1194  uint i */\n      0x00\n        /* \"testBank.sol\":1197:1198  0 */\n      0x00\n        /* \"testBank.sol\":1188:1198  uint i = 0 */\n      swap1\n      pop\n        /* \"testBank.sol\":1183:1780  for (uint i = 0; i < depositors.length; i++) {... */\n    tag_51:\n        /* \"testBank.sol\":1204:1214  depositors */\n      0x02\n        /* \"testBank.sol\":1204:1221  depositors.length */\n      dup1\n      sload\n      swap1\n      pop\n        /* \"testBank.sol\":1200:1201  i */\n      dup2\n        /* \"testBank.sol\":1200:1221  i < depositors.length */\n      lt\n        /* \"testBank.sol\":1183:1780  for (uint i = 0; i < depositors.length; i++) {... */\n      iszero\n      tag_52\n      jumpi\n        /* \"testBank.sol\":1243:1255  address user */\n      0x00\n        /* \"testBank.sol\":1258:1268  depositors */\n      0x02\n        /* \"testBank.sol\":1269:1270  i */\n      dup3\n        /* \"testBank.sol\":1258:1271  depositors[i] */\n      dup2\n      sload\n      dup2\n      lt\n      tag_54\n      jumpi\n      tag_55\n      tag_56\n      jump\t// in\n    tag_55:\n    tag_54:\n      swap1\n      0x00\n      mstore\n      keccak256(0x00, 0x20)\n      add\n      0x00\n      swap1\n      sload\n      swap1\n      0x0100\n      exp\n      swap1\n      div\n      0xffffffffffffffffffffffffffffffffffffffff\n      and\n        /* \"testBank.sol\":1243:1271  address user = depositors[i] */\n      swap1\n      pop\n        /* \"testBank.sol\":1286:1300  uint256 amount */\n      0x00\n        /* \"testBank.sol\":1303:1311  balances */\n      0x01\n        /* \"testBank.sol\":1303:1317  balances[user] */\n      0x00\n        /* \"testBank.sol\":1312:1316  user */\n      dup4\n        /* \"testBank.sol\":1303:1317  balances[user] */\n      0xffffffffffffffffffffffffffffffffffffffff\n      and\n      0xffffffffffffffffffffffffffffffffffffffff\n      and\n      dup2\n      mstore\n      0x20\n      add\n      swap1\n      dup2\n      mstore\n      0x20\n      add\n      0x00\n      keccak256\n      sload\n        /* \"testBank.sol\":1286:1317  uint256 amount = balances[user] */\n      swap1\n      pop\n        /* \"testBank.sol\":1401:1407  uint j */\n      0x00\n        /* \"testBank.sol\":1410:1411  0 */\n      0x00\n        /* \"testBank.sol\":1401:1411  uint j = 0 */\n      swap1\n      pop\n        /* \"testBank.sol\":1396:1769  for (uint j = 0; j < 3; j++) {... */\n    tag_58:\n        /* \"testBank.sol\":1417:1418  3 */\n      0x03\n        /* \"testBank.sol\":1413:1414  j */\n      dup2\n        /* \"testBank.sol\":1413:1418  j < 3 */\n      lt\n        /* \"testBank.sol\":1396:1769  for (uint j = 0; j < 3; j++) {... */\n      iszero\n      tag_59\n      jumpi\n        /* \"testBank.sol\":1457:1461  top3 */\n      dup5\n        /* \"testBank.sol\":1462:1463  j */\n      dup2\n        /* \"testBank.sol\":1457:1464  top3[j] */\n      0x03\n      dup2\n      lt\n      tag_61\n      jumpi\n      tag_62\n      tag_56\n      jump\t// in\n    tag_62:\n    tag_61:\n      0x20\n      mul\n      add\n      mload\n        /* \"testBank.sol\":1457:1471  top3[j].amount */\n      0x20\n      add\n      mload\n        /* \"testBank.sol\":1448:1454  amount */\n      dup3\n        /* \"testBank.sol\":1448:1471  amount > top3[j].amount */\n      gt\n        /* \"testBank.sol\":1444:1754  if (amount > top3[j].amount) {... */\n      iszero\n      tag_63\n      jumpi\n        /* \"testBank.sol\":1553:1559  uint k */\n      0x00\n        /* \"testBank.sol\":1562:1563  2 */\n      0x02\n        /* \"testBank.sol\":1553:1563  uint k = 2 */\n      swap1\n      pop\n        /* \"testBank.sol\":1548:1649  for (uint k = 2; k > j; k--) {... */\n    tag_64:\n        /* \"testBank.sol\":1569:1570  j */\n      dup2\n        /* \"testBank.sol\":1565:1566  k */\n      dup2\n        /* \"testBank.sol\":1565:1570  k > j */\n      gt\n        /* \"testBank.sol\":1548:1649  for (uint k = 2; k > j; k--) {... */\n      iszero\n      tag_65\n      jumpi\n        /* \"testBank.sol\":1614:1618  top3 */\n      dup6\n        /* \"testBank.sol\":1623:1624  1 */\n      0x01\n        /* \"testBank.sol\":1619:1620  k */\n      dup3\n        /* \"testBank.sol\":1619:1624  k - 1 */\n      tag_67\n      swap2\n      swap1\n      tag_68\n      jump\t// in\n    tag_67:\n        /* \"testBank.sol\":1614:1625  top3[k - 1] */\n      0x03\n      dup2\n      lt\n      tag_69\n      jumpi\n      tag_70\n      tag_56\n      jump\t// in\n    tag_70:\n    tag_69:\n      0x20\n      mul\n      add\n      mload\n        /* \"testBank.sol\":1604:1608  top3 */\n      dup7\n        /* \"testBank.sol\":1609:1610  k */\n      dup3\n        /* \"testBank.sol\":1604:1611  top3[k] */\n      0x03\n      dup2\n      lt\n      tag_71\n      jumpi\n      tag_72\n      tag_56\n      jump\t// in\n    tag_72:\n    tag_71:\n      0x20\n      mul\n      add\n        /* \"testBank.sol\":1604:1625  top3[k] = top3[k - 1] */\n      dup2\n      swap1\n      mstore\n      pop\n        /* \"testBank.sol\":1572:1575  k-- */\n      dup1\n      dup1\n      tag_73\n      swap1\n      tag_74\n      jump\t// in\n    tag_73:\n      swap2\n      pop\n      pop\n        /* \"testBank.sol\":1548:1649  for (uint k = 2; k > j; k--) {... */\n      jump(tag_64)\n    tag_65:\n      pop\n        /* \"testBank.sol\":1681:1706  DepositInfo(user, amount) */\n      mload(0x40)\n      dup1\n      0x40\n      add\n      0x40\n      mstore\n      dup1\n        /* \"testBank.sol\":1693:1697  user */\n      dup5\n        /* \"testBank.sol\":1681:1706  DepositInfo(user, amount) */\n      0xffffffffffffffffffffffffffffffffffffffff\n      and\n      dup2\n      mstore\n      0x20\n      add\n        /* \"testBank.sol\":1699:1705  amount */\n      dup4\n        /* \"testBank.sol\":1681:1706  DepositInfo(user, amount) */\n      dup2\n      mstore\n      pop\n        /* \"testBank.sol\":1671:1675  top3 */\n      dup6\n        /* \"testBank.sol\":1676:1677  j */\n      dup3\n        /* \"testBank.sol\":1671:1678  top3[j] */\n      0x03\n      dup2\n      lt\n      tag_75\n      jumpi\n      tag_76\n      tag_56\n      jump\t// in\n    tag_76:\n    tag_75:\n      0x20\n      mul\n      add\n        /* \"testBank.sol\":1671:1706  top3[j] = DepositInfo(user, amount) */\n      dup2\n      swap1\n      mstore\n      pop\n        /* \"testBank.sol\":1729:1734  break */\n      jump(tag_59)\n        /* \"testBank.sol\":1444:1754  if (amount > top3[j].amount) {... */\n    tag_63:\n        /* \"testBank.sol\":1420:1423  j++ */\n      dup1\n      dup1\n      0x01\n      add\n      swap2\n      pop\n      pop\n        /* \"testBank.sol\":1396:1769  for (uint j = 0; j < 3; j++) {... */\n      jump(tag_58)\n    tag_59:\n      pop\n        /* \"testBank.sol\":1228:1780  {... */\n      pop\n      pop\n        /* \"testBank.sol\":1223:1226  i++ */\n      dup1\n      dup1\n      0x01\n      add\n      swap2\n      pop\n      pop\n        /* \"testBank.sol\":1183:1780  for (uint i = 0; i < depositors.length; i++) {... */\n      jump(tag_51)\n    tag_52:\n      pop\n        /* \"testBank.sol\":1797:1801  top3 */\n      dup1\n        /* \"testBank.sol\":1790:1801  return top3 */\n      swap2\n      pop\n      pop\n        /* \"testBank.sol\":1050:1809  function getTop3Depositors() external view returns (DepositInfo[3] memory) {... */\n      swap1\n      jump\t// out\n        /* \"testBank.sol\":274:301  address[] public depositors */\n    tag_33:\n      0x02\n      dup2\n      dup2\n      sload\n      dup2\n      lt\n      tag_77\n      jumpi\n      0x00\n      dup1\n      revert\n    tag_77:\n      swap1\n      0x00\n      mstore\n      keccak256(0x00, 0x20)\n      add\n      0x00\n      swap2\n      pop\n      sload\n      swap1\n      0x0100\n      exp\n      swap1\n      div\n      0xffffffffffffffffffffffffffffffffffffffff\n      and\n      dup2\n      jump\t// out\n        /* \"testBank.sol\":105:125  address public admin */\n    tag_38:\n      0x00\n      0x00\n      swap1\n      sload\n      swap1\n      0x0100\n      exp\n      swap1\n      div\n      0xffffffffffffffffffffffffffffffffffffffff\n      and\n      dup2\n      jump\t// out\n    tag_48:\n      mload(0x40)\n      dup1\n      0x60\n      add\n      0x40\n      mstore\n      dup1\n      0x03\n      swap1\n    tag_79:\n      tag_80\n      tag_81\n      jump\t// in\n    tag_80:\n      dup2\n      mstore\n      0x20\n      add\n      swap1\n      0x01\n      swap1\n      sub\n      swap1\n      dup2\n      tag_79\n      jumpi\n      swap1\n      pop\n      pop\n      swap1\n      jump\t// out\n    tag_81:\n      mload(0x40)\n      dup1\n      0x40\n      add\n      0x40\n      mstore\n      dup1\n      and(0xffffffffffffffffffffffffffffffffffffffff, 0x00)\n      dup2\n      mstore\n      0x20\n      add\n      0x00\n      dup2\n      mstore\n      pop\n      swap1\n      jump\t// out\n        /* \"#utility.yul\":7:84   */\n    tag_82:\n        /* \"#utility.yul\":44:51   */\n      0x00\n        /* \"#utility.yul\":73:78   */\n      dup2\n        /* \"#utility.yul\":62:78   */\n      swap1\n      pop\n        /* \"#utility.yul\":7:84   */\n      swap2\n      swap1\n      pop\n      jump\t// out\n        /* \"#utility.yul\":90:270   */\n    tag_83:\n        /* \"#utility.yul\":138:215   */\n      0x4e487b7100000000000000000000000000000000000000000000000000000000\n        /* \"#utility.yul\":135:136   */\n      0x00\n        /* \"#utility.yul\":128:216   */\n      mstore\n        /* \"#utility.yul\":235:239   */\n      0x11\n        /* \"#utility.yul\":232:233   */\n      0x04\n        /* \"#utility.yul\":225:240   */\n      mstore\n        /* \"#utility.yul\":259:263   */\n      0x24\n        /* \"#utility.yul\":256:257   */\n      0x00\n        /* \"#utility.yul\":249:264   */\n      revert\n        /* \"#utility.yul\":276:467   */\n    tag_13:\n        /* \"#utility.yul\":316:319   */\n      0x00\n        /* \"#utility.yul\":335:355   */\n      tag_111\n        /* \"#utility.yul\":353:354   */\n      dup3\n        /* \"#utility.yul\":335:355   */\n      tag_82\n      jump\t// in\n    tag_111:\n        /* \"#utility.yul\":330:355   */\n      swap2\n      pop\n        /* \"#utility.yul\":369:389   */\n      tag_112\n        /* \"#utility.yul\":387:388   */\n      dup4\n        /* \"#utility.yul\":369:389   */\n      tag_82\n      jump\t// in\n    tag_112:\n        /* \"#utility.yul\":364:389   */\n      swap3\n      pop\n        /* \"#utility.yul\":412:413   */\n      dup3\n        /* \"#utility.yul\":409:410   */\n      dup3\n        /* \"#utility.yul\":405:414   */\n      add\n        /* \"#utility.yul\":398:414   */\n      swap1\n      pop\n        /* \"#utility.yul\":433:436   */\n      dup1\n        /* \"#utility.yul\":430:431   */\n      dup3\n        /* \"#utility.yul\":427:437   */\n      gt\n        /* \"#utility.yul\":424:460   */\n      iszero\n      tag_113\n      jumpi\n        /* \"#utility.yul\":440:458   */\n      tag_114\n      tag_83\n      jump\t// in\n    tag_114:\n        /* \"#utility.yul\":424:460   */\n    tag_113:\n        /* \"#utility.yul\":276:467   */\n      swap3\n      swap2\n      pop\n      pop\n      jump\t// out\n        /* \"#utility.yul\":554:671   */\n    tag_85:\n        /* \"#utility.yul\":663:664   */\n      0x00\n        /* \"#utility.yul\":660:661   */\n      0x00\n        /* \"#utility.yul\":653:665   */\n      revert\n        /* \"#utility.yul\":800:926   */\n    tag_87:\n        /* \"#utility.yul\":837:844   */\n      0x00\n        /* \"#utility.yul\":877:919   */\n      0xffffffffffffffffffffffffffffffffffffffff\n        /* \"#utility.yul\":870:875   */\n      dup3\n        /* \"#utility.yul\":866:920   */\n      and\n        /* \"#utility.yul\":855:920   */\n      swap1\n      pop\n        /* \"#utility.yul\":800:926   */\n      swap2\n      swap1\n      pop\n      jump\t// out\n        /* \"#utility.yul\":932:1028   */\n    tag_88:\n        /* \"#utility.yul\":969:976   */\n      0x00\n        /* \"#utility.yul\":998:1022   */\n      tag_120\n        /* \"#utility.yul\":1016:1021   */\n      dup3\n        /* \"#utility.yul\":998:1022   */\n      tag_87\n      jump\t// in\n    tag_120:\n        /* \"#utility.yul\":987:1022   */\n      swap1\n      pop\n        /* \"#utility.yul\":932:1028   */\n      swap2\n      swap1\n      pop\n      jump\t// out\n        /* \"#utility.yul\":1034:1156   */\n    tag_89:\n        /* \"#utility.yul\":1107:1131   */\n      tag_122\n        /* \"#utility.yul\":1125:1130   */\n      dup2\n        /* \"#utility.yul\":1107:1131   */\n      tag_88\n      jump\t// in\n    tag_122:\n        /* \"#utility.yul\":1100:1105   */\n      dup2\n        /* \"#utility.yul\":1097:1132   */\n      eq\n        /* \"#utility.yul\":1087:1150   */\n      tag_123\n      jumpi\n        /* \"#utility.yul\":1146:1147   */\n      0x00\n        /* \"#utility.yul\":1143:1144   */\n      0x00\n        /* \"#utility.yul\":1136:1148   */\n      revert\n        /* \"#utility.yul\":1087:1150   */\n    tag_123:\n        /* \"#utility.yul\":1034:1156   */\n      pop\n      jump\t// out\n        /* \"#utility.yul\":1162:1301   */\n    tag_90:\n        /* \"#utility.yul\":1208:1213   */\n      0x00\n        /* \"#utility.yul\":1246:1252   */\n      dup2\n        /* \"#utility.yul\":1233:1253   */\n      calldataload\n        /* \"#utility.yul\":1224:1253   */\n      swap1\n      pop\n        /* \"#utility.yul\":1262:1295   */\n      tag_125\n        /* \"#utility.yul\":1289:1294   */\n      dup2\n        /* \"#utility.yul\":1262:1295   */\n      tag_89\n      jump\t// in\n    tag_125:\n        /* \"#utility.yul\":1162:1301   */\n      swap3\n      swap2\n      pop\n      pop\n      jump\t// out\n        /* \"#utility.yul\":1307:1636   */\n    tag_17:\n        /* \"#utility.yul\":1366:1372   */\n      0x00\n        /* \"#utility.yul\":1415:1417   */\n      0x20\n        /* \"#utility.yul\":1403:1412   */\n      dup3\n        /* \"#utility.yul\":1394:1401   */\n      dup5\n        /* \"#utility.yul\":1390:1413   */\n      sub\n        /* \"#utility.yul\":1386:1418   */\n      slt\n        /* \"#utility.yul\":1383:1502   */\n      iszero\n      tag_127\n      jumpi\n        /* \"#utility.yul\":1421:1500   */\n      tag_128\n      tag_85\n      jump\t// in\n    tag_128:\n        /* \"#utility.yul\":1383:1502   */\n    tag_127:\n        /* \"#utility.yul\":1541:1542   */\n      0x00\n        /* \"#utility.yul\":1566:1619   */\n      tag_129\n        /* \"#utility.yul\":1611:1618   */\n      dup5\n        /* \"#utility.yul\":1602:1608   */\n      dup3\n        /* \"#utility.yul\":1591:1600   */\n      dup6\n        /* \"#utility.yul\":1587:1609   */\n      add\n        /* \"#utility.yul\":1566:1619   */\n      tag_90\n      jump\t// in\n    tag_129:\n        /* \"#utility.yul\":1556:1619   */\n      swap2\n      pop\n        /* \"#utility.yul\":1512:1629   */\n      pop\n        /* \"#utility.yul\":1307:1636   */\n      swap3\n      swap2\n      pop\n      pop\n      jump\t// out\n        /* \"#utility.yul\":1642:1760   */\n    tag_91:\n        /* \"#utility.yul\":1729:1753   */\n      tag_131\n        /* \"#utility.yul\":1747:1752   */\n      dup2\n        /* \"#utility.yul\":1729:1753   */\n      tag_82\n      jump\t// in\n    tag_131:\n        /* \"#utility.yul\":1724:1727   */\n      dup3\n        /* \"#utility.yul\":1717:1754   */\n      mstore\n        /* \"#utility.yul\":1642:1760   */\n      pop\n      pop\n      jump\t// out\n        /* \"#utility.yul\":1766:1988   */\n    tag_20:\n        /* \"#utility.yul\":1859:1863   */\n      0x00\n        /* \"#utility.yul\":1897:1899   */\n      0x20\n        /* \"#utility.yul\":1886:1895   */\n      dup3\n        /* \"#utility.yul\":1882:1900   */\n      add\n        /* \"#utility.yul\":1874:1900   */\n      swap1\n      pop\n        /* \"#utility.yul\":1910:1981   */\n      tag_133\n        /* \"#utility.yul\":1978:1979   */\n      0x00\n        /* \"#utility.yul\":1967:1976   */\n      dup4\n        /* \"#utility.yul\":1963:1980   */\n      add\n        /* \"#utility.yul\":1954:1960   */\n      dup5\n        /* \"#utility.yul\":1910:1981   */\n      tag_91\n      jump\t// in\n    tag_133:\n        /* \"#utility.yul\":1766:1988   */\n      swap3\n      swap2\n      pop\n      pop\n      jump\t// out\n        /* \"#utility.yul\":1994:2125   */\n    tag_92:\n        /* \"#utility.yul\":2086:2092   */\n      0x00\n        /* \"#utility.yul\":2114:2118   */\n      0x03\n        /* \"#utility.yul\":2104:2118   */\n      swap1\n      pop\n        /* \"#utility.yul\":1994:2125   */\n      swap2\n      swap1\n      pop\n      jump\t// out\n        /* \"#utility.yul\":2131:2301   */\n    tag_93:\n        /* \"#utility.yul\":2255:2266   */\n      0x00\n        /* \"#utility.yul\":2292:2295   */\n      dup2\n        /* \"#utility.yul\":2277:2295   */\n      swap1\n      pop\n        /* \"#utility.yul\":2131:2301   */\n      swap3\n      swap2\n      pop\n      pop\n      jump\t// out\n        /* \"#utility.yul\":2307:2432   */\n    tag_94:\n        /* \"#utility.yul\":2399:2403   */\n      0x00\n        /* \"#utility.yul\":2422:2425   */\n      dup2\n        /* \"#utility.yul\":2414:2425   */\n      swap1\n      pop\n        /* \"#utility.yul\":2307:2432   */\n      swap2\n      swap1\n      pop\n      jump\t// out\n        /* \"#utility.yul\":2438:2546   */\n    tag_95:\n        /* \"#utility.yul\":2515:2539   */\n      tag_138\n        /* \"#utility.yul\":2533:2538   */\n      dup2\n        /* \"#utility.yul\":2515:2539   */\n      tag_88\n      jump\t// in\n    tag_138:\n        /* \"#utility.yul\":2510:2513   */\n      dup3\n        /* \"#utility.yul\":2503:2540   */\n      mstore\n        /* \"#utility.yul\":2438:2546   */\n      pop\n      pop\n      jump\t// out\n        /* \"#utility.yul\":2552:2660   */\n    tag_96:\n        /* \"#utility.yul\":2629:2653   */\n      tag_140\n        /* \"#utility.yul\":2647:2652   */\n      dup2\n        /* \"#utility.yul\":2629:2653   */\n      tag_82\n      jump\t// in\n    tag_140:\n        /* \"#utility.yul\":2624:2627   */\n      dup3\n        /* \"#utility.yul\":2617:2654   */\n      mstore\n        /* \"#utility.yul\":2552:2660   */\n      pop\n      pop\n      jump\t// out\n        /* \"#utility.yul\":2724:3227   */\n    tag_97:\n        /* \"#utility.yul\":2865:2869   */\n      0x40\n        /* \"#utility.yul\":2860:2863   */\n      dup3\n        /* \"#utility.yul\":2856:2870   */\n      add\n        /* \"#utility.yul\":2952:2956   */\n      0x00\n        /* \"#utility.yul\":2945:2950   */\n      dup3\n        /* \"#utility.yul\":2941:2957   */\n      add\n        /* \"#utility.yul\":2935:2958   */\n      mload\n        /* \"#utility.yul\":2971:3034   */\n      tag_142\n        /* \"#utility.yul\":3028:3032   */\n      0x00\n        /* \"#utility.yul\":3023:3026   */\n      dup6\n        /* \"#utility.yul\":3019:3033   */\n      add\n        /* \"#utility.yul\":3005:3017   */\n      dup3\n        /* \"#utility.yul\":2971:3034   */\n      tag_95\n      jump\t// in\n    tag_142:\n        /* \"#utility.yul\":2880:3044   */\n      pop\n        /* \"#utility.yul\":3128:3132   */\n      0x20\n        /* \"#utility.yul\":3121:3126   */\n      dup3\n        /* \"#utility.yul\":3117:3133   */\n      add\n        /* \"#utility.yul\":3111:3134   */\n      mload\n        /* \"#utility.yul\":3147:3210   */\n      tag_143\n        /* \"#utility.yul\":3204:3208   */\n      0x20\n        /* \"#utility.yul\":3199:3202   */\n      dup6\n        /* \"#utility.yul\":3195:3209   */\n      add\n        /* \"#utility.yul\":3181:3193   */\n      dup3\n        /* \"#utility.yul\":3147:3210   */\n      tag_96\n      jump\t// in\n    tag_143:\n        /* \"#utility.yul\":3054:3220   */\n      pop\n        /* \"#utility.yul\":2834:3227   */\n      pop\n        /* \"#utility.yul\":2724:3227   */\n      pop\n      pop\n      jump\t// out\n        /* \"#utility.yul\":3233:3520   */\n    tag_98:\n        /* \"#utility.yul\":3356:3366   */\n      0x00\n        /* \"#utility.yul\":3377:3477   */\n      tag_145\n        /* \"#utility.yul\":3473:3476   */\n      dup4\n        /* \"#utility.yul\":3465:3471   */\n      dup4\n        /* \"#utility.yul\":3377:3477   */\n      tag_97\n      jump\t// in\n    tag_145:\n        /* \"#utility.yul\":3509:3513   */\n      0x40\n        /* \"#utility.yul\":3504:3507   */\n      dup4\n        /* \"#utility.yul\":3500:3514   */\n      add\n        /* \"#utility.yul\":3486:3514   */\n      swap1\n      pop\n        /* \"#utility.yul\":3233:3520   */\n      swap3\n      swap2\n      pop\n      pop\n      jump\t// out\n        /* \"#utility.yul\":3526:3664   */\n    tag_99:\n        /* \"#utility.yul\":3621:3625   */\n      0x00\n        /* \"#utility.yul\":3653:3657   */\n      0x20\n        /* \"#utility.yul\":3648:3651   */\n      dup3\n        /* \"#utility.yul\":3644:3658   */\n      add\n        /* \"#utility.yul\":3636:3658   */\n      swap1\n      pop\n        /* \"#utility.yul\":3526:3664   */\n      swap2\n      swap1\n      pop\n      jump\t// out\n        /* \"#utility.yul\":3734:4644   */\n    tag_100:\n        /* \"#utility.yul\":3924:4003   */\n      tag_148\n        /* \"#utility.yul\":3997:4002   */\n      dup2\n        /* \"#utility.yul\":3924:4003   */\n      tag_92\n      jump\t// in\n    tag_148:\n        /* \"#utility.yul\":4019:4130   */\n      tag_149\n        /* \"#utility.yul\":4123:4129   */\n      dup2\n        /* \"#utility.yul\":4118:4121   */\n      dup5\n        /* \"#utility.yul\":4019:4130   */\n      tag_93\n      jump\t// in\n    tag_149:\n        /* \"#utility.yul\":4012:4130   */\n      swap3\n      pop\n        /* \"#utility.yul\":4154:4235   */\n      tag_150\n        /* \"#utility.yul\":4229:4234   */\n      dup3\n        /* \"#utility.yul\":4154:4235   */\n      tag_94\n      jump\t// in\n    tag_150:\n        /* \"#utility.yul\":4258:4265   */\n      dup1\n        /* \"#utility.yul\":4289:4290   */\n      0x00\n        /* \"#utility.yul\":4274:4637   */\n    tag_151:\n        /* \"#utility.yul\":4299:4305   */\n      dup4\n        /* \"#utility.yul\":4296:4297   */\n      dup2\n        /* \"#utility.yul\":4293:4306   */\n      lt\n        /* \"#utility.yul\":4274:4637   */\n      iszero\n      tag_153\n      jumpi\n        /* \"#utility.yul\":4375:4381   */\n      dup2\n        /* \"#utility.yul\":4369:4382   */\n      mload\n        /* \"#utility.yul\":4402:4519   */\n      tag_154\n        /* \"#utility.yul\":4515:4518   */\n      dup8\n        /* \"#utility.yul\":4500:4513   */\n      dup3\n        /* \"#utility.yul\":4402:4519   */\n      tag_98\n      jump\t// in\n    tag_154:\n        /* \"#utility.yul\":4395:4519   */\n      swap7\n      pop\n        /* \"#utility.yul\":4542:4627   */\n      tag_155\n        /* \"#utility.yul\":4620:4626   */\n      dup4\n        /* \"#utility.yul\":4542:4627   */\n      tag_99\n      jump\t// in\n    tag_155:\n        /* \"#utility.yul\":4532:4627   */\n      swap3\n      pop\n        /* \"#utility.yul\":4334:4637   */\n      pop\n        /* \"#utility.yul\":4321:4322   */\n      0x01\n        /* \"#utility.yul\":4318:4319   */\n      dup2\n        /* \"#utility.yul\":4314:4323   */\n      add\n        /* \"#utility.yul\":4309:4323   */\n      swap1\n      pop\n        /* \"#utility.yul\":4274:4637   */\n      jump(tag_151)\n    tag_153:\n        /* \"#utility.yul\":4278:4292   */\n      pop\n        /* \"#utility.yul\":3900:4644   */\n      pop\n      pop\n      pop\n        /* \"#utility.yul\":3734:4644   */\n      pop\n      pop\n      jump\t// out\n        /* \"#utility.yul\":4650:5073   */\n    tag_28:\n        /* \"#utility.yul\":4843:4847   */\n      0x00\n        /* \"#utility.yul\":4881:4884   */\n      0xc0\n        /* \"#utility.yul\":4870:4879   */\n      dup3\n        /* \"#utility.yul\":4866:4885   */\n      add\n        /* \"#utility.yul\":4858:4885   */\n      swap1\n      pop\n        /* \"#utility.yul\":4895:5066   */\n      tag_157\n        /* \"#utility.yul\":5063:5064   */\n      0x00\n        /* \"#utility.yul\":5052:5061   */\n      dup4\n        /* \"#utility.yul\":5048:5065   */\n      add\n        /* \"#utility.yul\":5039:5045   */\n      dup5\n        /* \"#utility.yul\":4895:5066   */\n      tag_100\n      jump\t// in\n    tag_157:\n        /* \"#utility.yul\":4650:5073   */\n      swap3\n      swap2\n      pop\n      pop\n      jump\t// out\n        /* \"#utility.yul\":5079:5201   */\n    tag_101:\n        /* \"#utility.yul\":5152:5176   */\n      tag_159\n        /* \"#utility.yul\":5170:5175   */\n      dup2\n        /* \"#utility.yul\":5152:5176   */\n      tag_82\n      jump\t// in\n    tag_159:\n        /* \"#utility.yul\":5145:5150   */\n      dup2\n        /* \"#utility.yul\":5142:5177   */\n      eq\n        /* \"#utility.yul\":5132:5195   */\n      tag_160\n      jumpi\n        /* \"#utility.yul\":5191:5192   */\n      0x00\n        /* \"#utility.yul\":5188:5189   */\n      0x00\n        /* \"#utility.yul\":5181:5193   */\n      revert\n        /* \"#utility.yul\":5132:5195   */\n    tag_160:\n        /* \"#utility.yul\":5079:5201   */\n      pop\n      jump\t// out\n        /* \"#utility.yul\":5207:5346   */\n    tag_102:\n        /* \"#utility.yul\":5253:5258   */\n      0x00\n        /* \"#utility.yul\":5291:5297   */\n      dup2\n        /* \"#utility.yul\":5278:5298   */\n      calldataload\n        /* \"#utility.yul\":5269:5298   */\n      swap1\n      pop\n        /* \"#utility.yul\":5307:5340   */\n      tag_162\n        /* \"#utility.yul\":5334:5339   */\n      dup2\n        /* \"#utility.yul\":5307:5340   */\n      tag_101\n      jump\t// in\n    tag_162:\n        /* \"#utility.yul\":5207:5346   */\n      swap3\n      swap2\n      pop\n      pop\n      jump\t// out\n        /* \"#utility.yul\":5352:5681   */\n    tag_32:\n        /* \"#utility.yul\":5411:5417   */\n      0x00\n        /* \"#utility.yul\":5460:5462   */\n      0x20\n        /* \"#utility.yul\":5448:5457   */\n      dup3\n        /* \"#utility.yul\":5439:5446   */\n      dup5\n        /* \"#utility.yul\":5435:5458   */\n      sub\n        /* \"#utility.yul\":5431:5463   */\n      slt\n        /* \"#utility.yul\":5428:5547   */\n      iszero\n      tag_164\n      jumpi\n        /* \"#utility.yul\":5466:5545   */\n      tag_165\n      tag_85\n      jump\t// in\n    tag_165:\n        /* \"#utility.yul\":5428:5547   */\n    tag_164:\n        /* \"#utility.yul\":5586:5587   */\n      0x00\n        /* \"#utility.yul\":5611:5664   */\n      tag_166\n        /* \"#utility.yul\":5656:5663   */\n      dup5\n        /* \"#utility.yul\":5647:5653   */\n      dup3\n        /* \"#utility.yul\":5636:5645   */\n      dup6\n        /* \"#utility.yul\":5632:5654   */\n      add\n        /* \"#utility.yul\":5611:5664   */\n      tag_102\n      jump\t// in\n    tag_166:\n        /* \"#utility.yul\":5601:5664   */\n      swap2\n      pop\n        /* \"#utility.yul\":5557:5674   */\n      pop\n        /* \"#utility.yul\":5352:5681   */\n      swap3\n      swap2\n      pop\n      pop\n      jump\t// out\n        /* \"#utility.yul\":5687:5805   */\n    tag_103:\n        /* \"#utility.yul\":5774:5798   */\n      tag_168\n        /* \"#utility.yul\":5792:5797   */\n      dup2\n        /* \"#utility.yul\":5774:5798   */\n      tag_88\n      jump\t// in\n    tag_168:\n        /* \"#utility.yul\":5769:5772   */\n      dup3\n        /* \"#utility.yul\":5762:5799   */\n      mstore\n        /* \"#utility.yul\":5687:5805   */\n      pop\n      pop\n      jump\t// out\n        /* \"#utility.yul\":5811:6033   */\n    tag_35:\n        /* \"#utility.yul\":5904:5908   */\n      0x00\n        /* \"#utility.yul\":5942:5944   */\n      0x20\n        /* \"#utility.yul\":5931:5940   */\n      dup3\n        /* \"#utility.yul\":5927:5945   */\n      add\n        /* \"#utility.yul\":5919:5945   */\n      swap1\n      pop\n        /* \"#utility.yul\":5955:6026   */\n      tag_170\n        /* \"#utility.yul\":6023:6024   */\n      0x00\n        /* \"#utility.yul\":6012:6021   */\n      dup4\n        /* \"#utility.yul\":6008:6025   */\n      add\n        /* \"#utility.yul\":5999:6005   */\n      dup5\n        /* \"#utility.yul\":5955:6026   */\n      tag_103\n      jump\t// in\n    tag_170:\n        /* \"#utility.yul\":5811:6033   */\n      swap3\n      swap2\n      pop\n      pop\n      jump\t// out\n        /* \"#utility.yul\":6039:6208   */\n    tag_104:\n        /* \"#utility.yul\":6123:6134   */\n      0x00\n        /* \"#utility.yul\":6157:6163   */\n      dup3\n        /* \"#utility.yul\":6152:6155   */\n      dup3\n        /* \"#utility.yul\":6145:6164   */\n      mstore\n        /* \"#utility.yul\":6197:6201   */\n      0x20\n        /* \"#utility.yul\":6192:6195   */\n      dup3\n        /* \"#utility.yul\":6188:6202   */\n      add\n        /* \"#utility.yul\":6173:6202   */\n      swap1\n      pop\n        /* \"#utility.yul\":6039:6208   */\n      swap3\n      swap2\n      pop\n      pop\n      jump\t// out\n        /* \"#utility.yul\":6214:6388   */\n    tag_105:\n        /* \"#utility.yul\":6354:6380   */\n      0x4f6e6c792061646d696e2063616e2063616c6c20746869730000000000000000\n        /* \"#utility.yul\":6350:6351   */\n      0x00\n        /* \"#utility.yul\":6342:6348   */\n      dup3\n        /* \"#utility.yul\":6338:6352   */\n      add\n        /* \"#utility.yul\":6331:6381   */\n      mstore\n        /* \"#utility.yul\":6214:6388   */\n      pop\n      jump\t// out\n        /* \"#utility.yul\":6394:6760   */\n    tag_106:\n        /* \"#utility.yul\":6536:6539   */\n      0x00\n        /* \"#utility.yul\":6557:6624   */\n      tag_174\n        /* \"#utility.yul\":6621:6623   */\n      0x18\n        /* \"#utility.yul\":6616:6619   */\n      dup4\n        /* \"#utility.yul\":6557:6624   */\n      tag_104\n      jump\t// in\n    tag_174:\n        /* \"#utility.yul\":6550:6624   */\n      swap2\n      pop\n        /* \"#utility.yul\":6633:6726   */\n      tag_175\n        /* \"#utility.yul\":6722:6725   */\n      dup3\n        /* \"#utility.yul\":6633:6726   */\n      tag_105\n      jump\t// in\n    tag_175:\n        /* \"#utility.yul\":6751:6753   */\n      0x20\n        /* \"#utility.yul\":6746:6749   */\n      dup3\n        /* \"#utility.yul\":6742:6754   */\n      add\n        /* \"#utility.yul\":6735:6754   */\n      swap1\n      pop\n        /* \"#utility.yul\":6394:6760   */\n      swap2\n      swap1\n      pop\n      jump\t// out\n        /* \"#utility.yul\":6766:7185   */\n    tag_43:\n        /* \"#utility.yul\":6932:6936   */\n      0x00\n        /* \"#utility.yul\":6970:6972   */\n      0x20\n        /* \"#utility.yul\":6959:6968   */\n      dup3\n        /* \"#utility.yul\":6955:6973   */\n      add\n        /* \"#utility.yul\":6947:6973   */\n      swap1\n      pop\n        /* \"#utility.yul\":7019:7028   */\n      dup2\n        /* \"#utility.yul\":7013:7017   */\n      dup2\n        /* \"#utility.yul\":7009:7029   */\n      sub\n        /* \"#utility.yul\":7005:7006   */\n      0x00\n        /* \"#utility.yul\":6994:7003   */\n      dup4\n        /* \"#utility.yul\":6990:7007   */\n      add\n        /* \"#utility.yul\":6983:7030   */\n      mstore\n        /* \"#utility.yul\":7047:7178   */\n      tag_177\n        /* \"#utility.yul\":7173:7177   */\n      dup2\n        /* \"#utility.yul\":7047:7178   */\n      tag_106\n      jump\t// in\n    tag_177:\n        /* \"#utility.yul\":7039:7178   */\n      swap1\n      pop\n        /* \"#utility.yul\":6766:7185   */\n      swap2\n      swap1\n      pop\n      jump\t// out\n        /* \"#utility.yul\":7191:7371   */\n    tag_56:\n        /* \"#utility.yul\":7239:7316   */\n      0x4e487b7100000000000000000000000000000000000000000000000000000000\n        /* \"#utility.yul\":7236:7237   */\n      0x00\n        /* \"#utility.yul\":7229:7317   */\n      mstore\n        /* \"#utility.yul\":7336:7340   */\n      0x32\n        /* \"#utility.yul\":7333:7334   */\n      0x04\n        /* \"#utility.yul\":7326:7341   */\n      mstore\n        /* \"#utility.yul\":7360:7364   */\n      0x24\n        /* \"#utility.yul\":7357:7358   */\n      0x00\n        /* \"#utility.yul\":7350:7365   */\n      revert\n        /* \"#utility.yul\":7377:7571   */\n    tag_68:\n        /* \"#utility.yul\":7417:7421   */\n      0x00\n        /* \"#utility.yul\":7437:7457   */\n      tag_180\n        /* \"#utility.yul\":7455:7456   */\n      dup3\n        /* \"#utility.yul\":7437:7457   */\n      tag_82\n      jump\t// in\n    tag_180:\n        /* \"#utility.yul\":7432:7457   */\n      swap2\n      pop\n        /* \"#utility.yul\":7471:7491   */\n      tag_181\n        /* \"#utility.yul\":7489:7490   */\n      dup4\n        /* \"#utility.yul\":7471:7491   */\n      tag_82\n      jump\t// in\n    tag_181:\n        /* \"#utility.yul\":7466:7491   */\n      swap3\n      pop\n        /* \"#utility.yul\":7515:7516   */\n      dup3\n        /* \"#utility.yul\":7512:7513   */\n      dup3\n        /* \"#utility.yul\":7508:7517   */\n      sub\n        /* \"#utility.yul\":7500:7517   */\n      swap1\n      pop\n        /* \"#utility.yul\":7539:7540   */\n      dup2\n        /* \"#utility.yul\":7533:7537   */\n      dup2\n        /* \"#utility.yul\":7530:7541   */\n      gt\n        /* \"#utility.yul\":7527:7564   */\n      iszero\n      tag_182\n      jumpi\n        /* \"#utility.yul\":7544:7562   */\n      tag_183\n      tag_83\n      jump\t// in\n    tag_183:\n        /* \"#utility.yul\":7527:7564   */\n    tag_182:\n        /* \"#utility.yul\":7377:7571   */\n      swap3\n      swap2\n      pop\n      pop\n      jump\t// out\n        /* \"#utility.yul\":7577:7748   */\n    tag_74:\n        /* \"#utility.yul\":7616:7619   */\n      0x00\n        /* \"#utility.yul\":7639:7663   */\n      tag_185\n        /* \"#utility.yul\":7657:7662   */\n      dup3\n        /* \"#utility.yul\":7639:7663   */\n      tag_82\n      jump\t// in\n    tag_185:\n        /* \"#utility.yul\":7630:7663   */\n      swap2\n      pop\n        /* \"#utility.yul\":7685:7689   */\n      0x00\n        /* \"#utility.yul\":7678:7683   */\n      dup3\n        /* \"#utility.yul\":7675:7690   */\n      sub\n        /* \"#utility.yul\":7672:7713   */\n      tag_186\n      jumpi\n        /* \"#utility.yul\":7693:7711   */\n      tag_187\n      tag_83\n      jump\t// in\n    tag_187:\n        /* \"#utility.yul\":7672:7713   */\n    tag_186:\n        /* \"#utility.yul\":7740:7741   */\n      0x01\n        /* \"#utility.yul\":7733:7738   */\n      dup3\n        /* \"#utility.yul\":7729:7742   */\n      sub\n        /* \"#utility.yul\":7722:7742   */\n      swap1\n      pop\n        /* \"#utility.yul\":7577:7748   */\n      swap2\n      swap1\n      pop\n      jump\t// out\n\n    auxdata: 0xa26469706673582212202955b4e57e0418b0870ef6de3c99e9fafd6e0bf2461263d0c9603f29a1d030ba64736f6c634300081e0033\n}\n",
				"bytecode": {
					"linkReferences": {},
					"object": "6080604052348015600e575f5ffd5b50335f5f6101000a81548173ffffffffffffffffffffffffffffffffffffffff021916908373ffffffffffffffffffffffffffffffffffffffff16021790555061095e8061005b5f395ff3fe60806040526004361061004d575f3560e01c806327e235e31461014f5780633ccfd60b1461018b578063d26c0943146101a1578063e4b2fb79146101cb578063f851a440146102075761014b565b3661014b575f60015f3373ffffffffffffffffffffffffffffffffffffffff1673ffffffffffffffffffffffffffffffffffffffff1681526020019081526020015f2054036100f757600233908060018154018082558091505060019003905f5260205f20015f9091909190916101000a81548173ffffffffffffffffffffffffffffffffffffffff021916908373ffffffffffffffffffffffffffffffffffffffff1602179055505b3460015f3373ffffffffffffffffffffffffffffffffffffffff1673ffffffffffffffffffffffffffffffffffffffff1681526020019081526020015f205f82825461014391906105ce565b925050819055005b5f5ffd5b34801561015a575f5ffd5b506101756004803603810190610170919061065f565b610231565b6040516101829190610699565b60405180910390f35b348015610196575f5ffd5b5061019f610246565b005b3480156101ac575f5ffd5b506101b561033a565b6040516101c29190610793565b60405180910390f35b3480156101d6575f5ffd5b506101f160048036038101906101ec91906107d6565b6104de565b6040516101fe9190610810565b60405180910390f35b348015610212575f5ffd5b5061021b610519565b6040516102289190610810565b60405180910390f35b6001602052805f5260405f205f915090505481565b5f5f9054906101000a900473ffffffffffffffffffffffffffffffffffffffff1673ffffffffffffffffffffffffffffffffffffffff163373ffffffffffffffffffffffffffffffffffffffff16146102d4576040517f08c379a00000000000000000000000000000000000000000000000000000000081526004016102cb90610883565b60405180910390fd5b5f5f9054906101000a900473ffffffffffffffffffffffffffffffffffffffff1673ffffffffffffffffffffffffffffffffffffffff166108fc4790811502906040515f60405180830381858888f19350505050158015610337573d5f5f3e3d5ffd5b50565b61034261053d565b61034a61053d565b5f5f90505b6002805490508110156104d6575f60028281548110610371576103706108a1565b5b905f5260205f20015f9054906101000a900473ffffffffffffffffffffffffffffffffffffffff1690505f60015f8373ffffffffffffffffffffffffffffffffffffffff1673ffffffffffffffffffffffffffffffffffffffff1681526020019081526020015f205490505f5f90505b60038110156104c6578481600381106103fd576103fc6108a1565b5b6020020151602001518211156104b9575f600290505b8181111561046d578560018261042991906108ce565b6003811061043a576104396108a1565b5b6020020151868260038110610452576104516108a1565b5b6020020181905250808061046590610901565b915050610413565b5060405180604001604052808473ffffffffffffffffffffffffffffffffffffffff168152602001838152508582600381106104ac576104ab6108a1565b5b60200201819052506104c6565b80806001019150506103e1565b505050808060010191505061034f565b508091505090565b600281815481106104ed575f80fd5b905f5260205f20015f915054906101000a900473ffffffffffffffffffffffffffffffffffffffff1681565b5f5f9054906101000a900473ffffffffffffffffffffffffffffffffffffffff1681565b60405180606001604052806003905b61055461056a565b81526020019060019003908161054c5790505090565b60405180604001604052805f73ffffffffffffffffffffffffffffffffffffffff1681526020015f81525090565b5f819050919050565b7f4e487b71000000000000000000000000000000000000000000000000000000005f52601160045260245ffd5b5f6105d882610598565b91506105e383610598565b92508282019050808211156105fb576105fa6105a1565b5b92915050565b5f5ffd5b5f73ffffffffffffffffffffffffffffffffffffffff82169050919050565b5f61062e82610605565b9050919050565b61063e81610624565b8114610648575f5ffd5b50565b5f8135905061065981610635565b92915050565b5f6020828403121561067457610673610601565b5b5f6106818482850161064b565b91505092915050565b61069381610598565b82525050565b5f6020820190506106ac5f83018461068a565b92915050565b5f60039050919050565b5f81905092915050565b5f819050919050565b6106d881610624565b82525050565b6106e781610598565b82525050565b604082015f8201516107015f8501826106cf565b50602082015161071460208501826106de565b50505050565b5f61072583836106ed565b60408301905092915050565b5f602082019050919050565b610746816106b2565b61075081846106bc565b925061075b826106c6565b805f5b8381101561078b578151610772878261071a565b965061077d83610731565b92505060018101905061075e565b505050505050565b5f60c0820190506107a65f83018461073d565b92915050565b6107b581610598565b81146107bf575f5ffd5b50565b5f813590506107d0816107ac565b92915050565b5f602082840312156107eb576107ea610601565b5b5f6107f8848285016107c2565b91505092915050565b61080a81610624565b82525050565b5f6020820190506108235f830184610801565b92915050565b5f82825260208201905092915050565b7f4f6e6c792061646d696e2063616e2063616c6c207468697300000000000000005f82015250565b5f61086d601883610829565b915061087882610839565b602082019050919050565b5f6020820190508181035f83015261089a81610861565b9050919050565b7f4e487b71000000000000000000000000000000000000000000000000000000005f52603260045260245ffd5b5f6108d882610598565b91506108e383610598565b92508282039050818111156108fb576108fa6105a1565b5b92915050565b5f61090b82610598565b91505f820361091d5761091c6105a1565b5b60018203905091905056fea26469706673582212202955b4e57e0418b0870ef6de3c99e9fafd6e0bf2461263d0c9603f29a1d030ba64736f6c634300081e0033",
					"opcodes": "PUSH1 0x80 PUSH1 0x40 MSTORE CALLVALUE DUP1 ISZERO PUSH1 0xE JUMPI PUSH0 PUSH0 REVERT JUMPDEST POP CALLER PUSH0 PUSH0 PUSH2 0x100 EXP DUP2 SLOAD DUP2 PUSH20 0xFFFFFFFFFFFFFFFFFFFFFFFFFFFFFFFFFFFFFFFF MUL NOT AND SWAP1 DUP4 PUSH20 0xFFFFFFFFFFFFFFFFFFFFFFFFFFFFFFFFFFFFFFFF AND MUL OR SWAP1 SSTORE POP PUSH2 0x95E DUP1 PUSH2 0x5B PUSH0 CODECOPY PUSH0 RETURN INVALID PUSH1 0x80 PUSH1 0x40 MSTORE PUSH1 0x4 CALLDATASIZE LT PUSH2 0x4D JUMPI PUSH0 CALLDATALOAD PUSH1 0xE0 SHR DUP1 PUSH4 0x27E235E3 EQ PUSH2 0x14F JUMPI DUP1 PUSH4 0x3CCFD60B EQ PUSH2 0x18B JUMPI DUP1 PUSH4 0xD26C0943 EQ PUSH2 0x1A1 JUMPI DUP1 PUSH4 0xE4B2FB79 EQ PUSH2 0x1CB JUMPI DUP1 PUSH4 0xF851A440 EQ PUSH2 0x207 JUMPI PUSH2 0x14B JUMP JUMPDEST CALLDATASIZE PUSH2 0x14B JUMPI PUSH0 PUSH1 0x1 PUSH0 CALLER PUSH20 0xFFFFFFFFFFFFFFFFFFFFFFFFFFFFFFFFFFFFFFFF AND PUSH20 0xFFFFFFFFFFFFFFFFFFFFFFFFFFFFFFFFFFFFFFFF AND DUP2 MSTORE PUSH1 0x20 ADD SWAP1 DUP2 MSTORE PUSH1 0x20 ADD PUSH0 KECCAK256 SLOAD SUB PUSH2 0xF7 JUMPI PUSH1 0x2 CALLER SWAP1 DUP1 PUSH1 0x1 DUP2 SLOAD ADD DUP1 DUP3 SSTORE DUP1 SWAP2 POP POP PUSH1 0x1 SWAP1 SUB SWAP1 PUSH0 MSTORE PUSH1 0x20 PUSH0 KECCAK256 ADD PUSH0 SWAP1 SWAP2 SWAP1 SWAP2 SWAP1 SWAP2 PUSH2 0x100 EXP DUP2 SLOAD DUP2 PUSH20 0xFFFFFFFFFFFFFFFFFFFFFFFFFFFFFFFFFFFFFFFF MUL NOT AND SWAP1 DUP4 PUSH20 0xFFFFFFFFFFFFFFFFFFFFFFFFFFFFFFFFFFFFFFFF AND MUL OR SWAP1 SSTORE POP JUMPDEST CALLVALUE PUSH1 0x1 PUSH0 CALLER PUSH20 0xFFFFFFFFFFFFFFFFFFFFFFFFFFFFFFFFFFFFFFFF AND PUSH20 0xFFFFFFFFFFFFFFFFFFFFFFFFFFFFFFFFFFFFFFFF AND DUP2 MSTORE PUSH1 0x20 ADD SWAP1 DUP2 MSTORE PUSH1 0x20 ADD PUSH0 KECCAK256 PUSH0 DUP3 DUP3 SLOAD PUSH2 0x143 SWAP2 SWAP1 PUSH2 0x5CE JUMP JUMPDEST SWAP3 POP POP DUP2 SWAP1 SSTORE STOP JUMPDEST PUSH0 PUSH0 REVERT JUMPDEST CALLVALUE DUP1 ISZERO PUSH2 0x15A JUMPI PUSH0 PUSH0 REVERT JUMPDEST POP PUSH2 0x175 PUSH1 0x4 DUP1 CALLDATASIZE SUB DUP2 ADD SWAP1 PUSH2 0x170 SWAP2 SWAP1 PUSH2 0x65F JUMP JUMPDEST PUSH2 0x231 JUMP JUMPDEST PUSH1 0x40 MLOAD PUSH2 0x182 SWAP2 SWAP1 PUSH2 0x699 JUMP JUMPDEST PUSH1 0x40 MLOAD DUP1 SWAP2 SUB SWAP1 RETURN JUMPDEST CALLVALUE DUP1 ISZERO PUSH2 0x196 JUMPI PUSH0 PUSH0 REVERT JUMPDEST POP PUSH2 0x19F PUSH2 0x246 JUMP JUMPDEST STOP JUMPDEST CALLVALUE DUP1 ISZERO PUSH2 0x1AC JUMPI PUSH0 PUSH0 REVERT JUMPDEST POP PUSH2 0x1B5 PUSH2 0x33A JUMP JUMPDEST PUSH1 0x40 MLOAD PUSH2 0x1C2 SWAP2 SWAP1 PUSH2 0x793 JUMP JUMPDEST PUSH1 0x40 MLOAD DUP1 SWAP2 SUB SWAP1 RETURN JUMPDEST CALLVALUE DUP1 ISZERO PUSH2 0x1D6 JUMPI PUSH0 PUSH0 REVERT JUMPDEST POP PUSH2 0x1F1 PUSH1 0x4 DUP1 CALLDATASIZE SUB DUP2 ADD SWAP1 PUSH2 0x1EC SWAP2 SWAP1 PUSH2 0x7D6 JUMP JUMPDEST PUSH2 0x4DE JUMP JUMPDEST PUSH1 0x40 MLOAD PUSH2 0x1FE SWAP2 SWAP1 PUSH2 0x810 JUMP JUMPDEST PUSH1 0x40 MLOAD DUP1 SWAP2 SUB SWAP1 RETURN JUMPDEST CALLVALUE DUP1 ISZERO PUSH2 0x212 JUMPI PUSH0 PUSH0 REVERT JUMPDEST POP PUSH2 0x21B PUSH2 0x519 JUMP JUMPDEST PUSH1 0x40 MLOAD PUSH2 0x228 SWAP2 SWAP1 PUSH2 0x810 JUMP JUMPDEST PUSH1 0x40 MLOAD DUP1 SWAP2 SUB SWAP1 RETURN JUMPDEST PUSH1 0x1 PUSH1 0x20 MSTORE DUP1 PUSH0 MSTORE PUSH1 0x40 PUSH0 KECCAK256 PUSH0 SWAP2 POP SWAP1 POP SLOAD DUP2 JUMP JUMPDEST PUSH0 PUSH0 SWAP1 SLOAD SWAP1 PUSH2 0x100 EXP SWAP1 DIV PUSH20 0xFFFFFFFFFFFFFFFFFFFFFFFFFFFFFFFFFFFFFFFF AND PUSH20 0xFFFFFFFFFFFFFFFFFFFFFFFFFFFFFFFFFFFFFFFF AND CALLER PUSH20 0xFFFFFFFFFFFFFFFFFFFFFFFFFFFFFFFFFFFFFFFF AND EQ PUSH2 0x2D4 JUMPI PUSH1 0x40 MLOAD PUSH32 0x8C379A000000000000000000000000000000000000000000000000000000000 DUP2 MSTORE PUSH1 0x4 ADD PUSH2 0x2CB SWAP1 PUSH2 0x883 JUMP JUMPDEST PUSH1 0x40 MLOAD DUP1 SWAP2 SUB SWAP1 REVERT JUMPDEST PUSH0 PUSH0 SWAP1 SLOAD SWAP1 PUSH2 0x100 EXP SWAP1 DIV PUSH20 0xFFFFFFFFFFFFFFFFFFFFFFFFFFFFFFFFFFFFFFFF AND PUSH20 0xFFFFFFFFFFFFFFFFFFFFFFFFFFFFFFFFFFFFFFFF AND PUSH2 0x8FC SELFBALANCE SWAP1 DUP2 ISZERO MUL SWAP1 PUSH1 0x40 MLOAD PUSH0 PUSH1 0x40 MLOAD DUP1 DUP4 SUB DUP2 DUP6 DUP9 DUP9 CALL SWAP4 POP POP POP POP ISZERO DUP1 ISZERO PUSH2 0x337 JUMPI RETURNDATASIZE PUSH0 PUSH0 RETURNDATACOPY RETURNDATASIZE PUSH0 REVERT JUMPDEST POP JUMP JUMPDEST PUSH2 0x342 PUSH2 0x53D JUMP JUMPDEST PUSH2 0x34A PUSH2 0x53D JUMP JUMPDEST PUSH0 PUSH0 SWAP1 POP JUMPDEST PUSH1 0x2 DUP1 SLOAD SWAP1 POP DUP2 LT ISZERO PUSH2 0x4D6 JUMPI PUSH0 PUSH1 0x2 DUP3 DUP2 SLOAD DUP2 LT PUSH2 0x371 JUMPI PUSH2 0x370 PUSH2 0x8A1 JUMP JUMPDEST JUMPDEST SWAP1 PUSH0 MSTORE PUSH1 0x20 PUSH0 KECCAK256 ADD PUSH0 SWAP1 SLOAD SWAP1 PUSH2 0x100 EXP SWAP1 DIV PUSH20 0xFFFFFFFFFFFFFFFFFFFFFFFFFFFFFFFFFFFFFFFF AND SWAP1 POP PUSH0 PUSH1 0x1 PUSH0 DUP4 PUSH20 0xFFFFFFFFFFFFFFFFFFFFFFFFFFFFFFFFFFFFFFFF AND PUSH20 0xFFFFFFFFFFFFFFFFFFFFFFFFFFFFFFFFFFFFFFFF AND DUP2 MSTORE PUSH1 0x20 ADD SWAP1 DUP2 MSTORE PUSH1 0x20 ADD PUSH0 KECCAK256 SLOAD SWAP1 POP PUSH0 PUSH0 SWAP1 POP JUMPDEST PUSH1 0x3 DUP2 LT ISZERO PUSH2 0x4C6 JUMPI DUP5 DUP2 PUSH1 0x3 DUP2 LT PUSH2 0x3FD JUMPI PUSH2 0x3FC PUSH2 0x8A1 JUMP JUMPDEST JUMPDEST PUSH1 0x20 MUL ADD MLOAD PUSH1 0x20 ADD MLOAD DUP3 GT ISZERO PUSH2 0x4B9 JUMPI PUSH0 PUSH1 0x2 SWAP1 POP JUMPDEST DUP2 DUP2 GT ISZERO PUSH2 0x46D JUMPI DUP6 PUSH1 0x1 DUP3 PUSH2 0x429 SWAP2 SWAP1 PUSH2 0x8CE JUMP JUMPDEST PUSH1 0x3 DUP2 LT PUSH2 0x43A JUMPI PUSH2 0x439 PUSH2 0x8A1 JUMP JUMPDEST JUMPDEST PUSH1 0x20 MUL ADD MLOAD DUP7 DUP3 PUSH1 0x3 DUP2 LT PUSH2 0x452 JUMPI PUSH2 0x451 PUSH2 0x8A1 JUMP JUMPDEST JUMPDEST PUSH1 0x20 MUL ADD DUP2 SWAP1 MSTORE POP DUP1 DUP1 PUSH2 0x465 SWAP1 PUSH2 0x901 JUMP JUMPDEST SWAP2 POP POP PUSH2 0x413 JUMP JUMPDEST POP PUSH1 0x40 MLOAD DUP1 PUSH1 0x40 ADD PUSH1 0x40 MSTORE DUP1 DUP5 PUSH20 0xFFFFFFFFFFFFFFFFFFFFFFFFFFFFFFFFFFFFFFFF AND DUP2 MSTORE PUSH1 0x20 ADD DUP4 DUP2 MSTORE POP DUP6 DUP3 PUSH1 0x3 DUP2 LT PUSH2 0x4AC JUMPI PUSH2 0x4AB PUSH2 0x8A1 JUMP JUMPDEST JUMPDEST PUSH1 0x20 MUL ADD DUP2 SWAP1 MSTORE POP PUSH2 0x4C6 JUMP JUMPDEST DUP1 DUP1 PUSH1 0x1 ADD SWAP2 POP POP PUSH2 0x3E1 JUMP JUMPDEST POP POP POP DUP1 DUP1 PUSH1 0x1 ADD SWAP2 POP POP PUSH2 0x34F JUMP JUMPDEST POP DUP1 SWAP2 POP POP SWAP1 JUMP JUMPDEST PUSH1 0x2 DUP2 DUP2 SLOAD DUP2 LT PUSH2 0x4ED JUMPI PUSH0 DUP1 REVERT JUMPDEST SWAP1 PUSH0 MSTORE PUSH1 0x20 PUSH0 KECCAK256 ADD PUSH0 SWAP2 POP SLOAD SWAP1 PUSH2 0x100 EXP SWAP1 DIV PUSH20 0xFFFFFFFFFFFFFFFFFFFFFFFFFFFFFFFFFFFFFFFF AND DUP2 JUMP JUMPDEST PUSH0 PUSH0 SWAP1 SLOAD SWAP1 PUSH2 0x100 EXP SWAP1 DIV PUSH20 0xFFFFFFFFFFFFFFFFFFFFFFFFFFFFFFFFFFFFFFFF AND DUP2 JUMP JUMPDEST PUSH1 0x40 MLOAD DUP1 PUSH1 0x60 ADD PUSH1 0x40 MSTORE DUP1 PUSH1 0x3 SWAP1 JUMPDEST PUSH2 0x554 PUSH2 0x56A JUMP JUMPDEST DUP2 MSTORE PUSH1 0x20 ADD SWAP1 PUSH1 0x1 SWAP1 SUB SWAP1 DUP2 PUSH2 0x54C JUMPI SWAP1 POP POP SWAP1 JUMP JUMPDEST PUSH1 0x40 MLOAD DUP1 PUSH1 0x40 ADD PUSH1 0x40 MSTORE DUP1 PUSH0 PUSH20 0xFFFFFFFFFFFFFFFFFFFFFFFFFFFFFFFFFFFFFFFF AND DUP2 MSTORE PUSH1 0x20 ADD PUSH0 DUP2 MSTORE POP SWAP1 JUMP JUMPDEST PUSH0 DUP2 SWAP1 POP SWAP2 SWAP1 POP JUMP JUMPDEST PUSH32 0x4E487B7100000000000000000000000000000000000000000000000000000000 PUSH0 MSTORE PUSH1 0x11 PUSH1 0x4 MSTORE PUSH1 0x24 PUSH0 REVERT JUMPDEST PUSH0 PUSH2 0x5D8 DUP3 PUSH2 0x598 JUMP JUMPDEST SWAP2 POP PUSH2 0x5E3 DUP4 PUSH2 0x598 JUMP JUMPDEST SWAP3 POP DUP3 DUP3 ADD SWAP1 POP DUP1 DUP3 GT ISZERO PUSH2 0x5FB JUMPI PUSH2 0x5FA PUSH2 0x5A1 JUMP JUMPDEST JUMPDEST SWAP3 SWAP2 POP POP JUMP JUMPDEST PUSH0 PUSH0 REVERT JUMPDEST PUSH0 PUSH20 0xFFFFFFFFFFFFFFFFFFFFFFFFFFFFFFFFFFFFFFFF DUP3 AND SWAP1 POP SWAP2 SWAP1 POP JUMP JUMPDEST PUSH0 PUSH2 0x62E DUP3 PUSH2 0x605 JUMP JUMPDEST SWAP1 POP SWAP2 SWAP1 POP JUMP JUMPDEST PUSH2 0x63E DUP2 PUSH2 0x624 JUMP JUMPDEST DUP2 EQ PUSH2 0x648 JUMPI PUSH0 PUSH0 REVERT JUMPDEST POP JUMP JUMPDEST PUSH0 DUP2 CALLDATALOAD SWAP1 POP PUSH2 0x659 DUP2 PUSH2 0x635 JUMP JUMPDEST SWAP3 SWAP2 POP POP JUMP JUMPDEST PUSH0 PUSH1 0x20 DUP3 DUP5 SUB SLT ISZERO PUSH2 0x674 JUMPI PUSH2 0x673 PUSH2 0x601 JUMP JUMPDEST JUMPDEST PUSH0 PUSH2 0x681 DUP5 DUP3 DUP6 ADD PUSH2 0x64B JUMP JUMPDEST SWAP2 POP POP SWAP3 SWAP2 POP POP JUMP JUMPDEST PUSH2 0x693 DUP2 PUSH2 0x598 JUMP JUMPDEST DUP3 MSTORE POP POP JUMP JUMPDEST PUSH0 PUSH1 0x20 DUP3 ADD SWAP1 POP PUSH2 0x6AC PUSH0 DUP4 ADD DUP5 PUSH2 0x68A JUMP JUMPDEST SWAP3 SWAP2 POP POP JUMP JUMPDEST PUSH0 PUSH1 0x3 SWAP1 POP SWAP2 SWAP1 POP JUMP JUMPDEST PUSH0 DUP2 SWAP1 POP SWAP3 SWAP2 POP POP JUMP JUMPDEST PUSH0 DUP2 SWAP1 POP SWAP2 SWAP1 POP JUMP JUMPDEST PUSH2 0x6D8 DUP2 PUSH2 0x624 JUMP JUMPDEST DUP3 MSTORE POP POP JUMP JUMPDEST PUSH2 0x6E7 DUP2 PUSH2 0x598 JUMP JUMPDEST DUP3 MSTORE POP POP JUMP JUMPDEST PUSH1 0x40 DUP3 ADD PUSH0 DUP3 ADD MLOAD PUSH2 0x701 PUSH0 DUP6 ADD DUP3 PUSH2 0x6CF JUMP JUMPDEST POP PUSH1 0x20 DUP3 ADD MLOAD PUSH2 0x714 PUSH1 0x20 DUP6 ADD DUP3 PUSH2 0x6DE JUMP JUMPDEST POP POP POP POP JUMP JUMPDEST PUSH0 PUSH2 0x725 DUP4 DUP4 PUSH2 0x6ED JUMP JUMPDEST PUSH1 0x40 DUP4 ADD SWAP1 POP SWAP3 SWAP2 POP POP JUMP JUMPDEST PUSH0 PUSH1 0x20 DUP3 ADD SWAP1 POP SWAP2 SWAP1 POP JUMP JUMPDEST PUSH2 0x746 DUP2 PUSH2 0x6B2 JUMP JUMPDEST PUSH2 0x750 DUP2 DUP5 PUSH2 0x6BC JUMP JUMPDEST SWAP3 POP PUSH2 0x75B DUP3 PUSH2 0x6C6 JUMP JUMPDEST DUP1 PUSH0 JUMPDEST DUP4 DUP2 LT ISZERO PUSH2 0x78B JUMPI DUP2 MLOAD PUSH2 0x772 DUP8 DUP3 PUSH2 0x71A JUMP JUMPDEST SWAP7 POP PUSH2 0x77D DUP4 PUSH2 0x731 JUMP JUMPDEST SWAP3 POP POP PUSH1 0x1 DUP2 ADD SWAP1 POP PUSH2 0x75E JUMP JUMPDEST POP POP POP POP POP POP JUMP JUMPDEST PUSH0 PUSH1 0xC0 DUP3 ADD SWAP1 POP PUSH2 0x7A6 PUSH0 DUP4 ADD DUP5 PUSH2 0x73D JUMP JUMPDEST SWAP3 SWAP2 POP POP JUMP JUMPDEST PUSH2 0x7B5 DUP2 PUSH2 0x598 JUMP JUMPDEST DUP2 EQ PUSH2 0x7BF JUMPI PUSH0 PUSH0 REVERT JUMPDEST POP JUMP JUMPDEST PUSH0 DUP2 CALLDATALOAD SWAP1 POP PUSH2 0x7D0 DUP2 PUSH2 0x7AC JUMP JUMPDEST SWAP3 SWAP2 POP POP JUMP JUMPDEST PUSH0 PUSH1 0x20 DUP3 DUP5 SUB SLT ISZERO PUSH2 0x7EB JUMPI PUSH2 0x7EA PUSH2 0x601 JUMP JUMPDEST JUMPDEST PUSH0 PUSH2 0x7F8 DUP5 DUP3 DUP6 ADD PUSH2 0x7C2 JUMP JUMPDEST SWAP2 POP POP SWAP3 SWAP2 POP POP JUMP JUMPDEST PUSH2 0x80A DUP2 PUSH2 0x624 JUMP JUMPDEST DUP3 MSTORE POP POP JUMP JUMPDEST PUSH0 PUSH1 0x20 DUP3 ADD SWAP1 POP PUSH2 0x823 PUSH0 DUP4 ADD DUP5 PUSH2 0x801 JUMP JUMPDEST SWAP3 SWAP2 POP POP JUMP JUMPDEST PUSH0 DUP3 DUP3 MSTORE PUSH1 0x20 DUP3 ADD SWAP1 POP SWAP3 SWAP2 POP POP JUMP JUMPDEST PUSH32 0x4F6E6C792061646D696E2063616E2063616C6C20746869730000000000000000 PUSH0 DUP3 ADD MSTORE POP JUMP JUMPDEST PUSH0 PUSH2 0x86D PUSH1 0x18 DUP4 PUSH2 0x829 JUMP JUMPDEST SWAP2 POP PUSH2 0x878 DUP3 PUSH2 0x839 JUMP JUMPDEST PUSH1 0x20 DUP3 ADD SWAP1 POP SWAP2 SWAP1 POP JUMP JUMPDEST PUSH0 PUSH1 0x20 DUP3 ADD SWAP1 POP DUP2 DUP2 SUB PUSH0 DUP4 ADD MSTORE PUSH2 0x89A DUP2 PUSH2 0x861 JUMP JUMPDEST SWAP1 POP SWAP2 SWAP1 POP JUMP JUMPDEST PUSH32 0x4E487B7100000000000000000000000000000000000000000000000000000000 PUSH0 MSTORE PUSH1 0x32 PUSH1 0x4 MSTORE PUSH1 0x24 PUSH0 REVERT JUMPDEST PUSH0 PUSH2 0x8D8 DUP3 PUSH2 0x598 JUMP JUMPDEST SWAP2 POP PUSH2 0x8E3 DUP4 PUSH2 0x598 JUMP JUMPDEST SWAP3 POP DUP3 DUP3 SUB SWAP1 POP DUP2 DUP2 GT ISZERO PUSH2 0x8FB JUMPI PUSH2 0x8FA PUSH2 0x5A1 JUMP JUMPDEST JUMPDEST SWAP3 SWAP2 POP POP JUMP JUMPDEST PUSH0 PUSH2 0x90B DUP3 PUSH2 0x598 JUMP JUMPDEST SWAP2 POP PUSH0 DUP3 SUB PUSH2 0x91D JUMPI PUSH2 0x91C PUSH2 0x5A1 JUMP JUMPDEST JUMPDEST PUSH1 0x1 DUP3 SUB SWAP1 POP SWAP2 SWAP1 POP JUMP INVALID LOG2 PUSH5 0x6970667358 0x22 SLT KECCAK256 0x29 SSTORE 0xB4 JUMPF 0x7E04 XOR 0xB0 DUP8 0xE 0xF6 0xDE EXTCODECOPY SWAP10 0xE9 STATICCALL REVERT PUSH15 0xBF2461263D0C9603F29A1D030BA64 PUSH20 0x6F6C634300081E00330000000000000000000000 "
				},
				"gasEstimates": {
					"creation": {
						"codeDepositCost": "479600",
						"executionCost": "24773",
						"totalCost": "504373"
					},
					"external": {
						"admin()": "2573",
						"balances(address)": "2780",
						"depositors(uint256)": "4988",
						"getTop3Depositors()": "infinite",
						"withdraw()": "infinite"
					}
				},
				"methodIdentifiers": {
					"admin()": "f851a440",
					"balances(address)": "27e235e3",
					"depositors(uint256)": "e4b2fb79",
					"getTop3Depositors()": "d26c0943",
					"withdraw()": "3ccfd60b"
				}
			},
			"storageLayout": {
				"storage": [
					{
						"astId": 3,
						"contract": "testBank.sol:Bank",
						"label": "admin",
						"offset": 0,
						"slot": "0",
						"type": "t_address"
					},
					{
						"astId": 7,
						"contract": "testBank.sol:Bank",
						"label": "balances",
						"offset": 0,
						"slot": "1",
						"type": "t_mapping(t_address,t_uint256)"
					},
					{
						"astId": 10,
						"contract": "testBank.sol:Bank",
						"label": "depositors",
						"offset": 0,
						"slot": "2",
						"type": "t_array(t_address)dyn_storage"
					}
				],
				"types": {
					"t_address": {
						"encoding": "inplace",
						"label": "address",
						"numberOfBytes": "20"
					},
					"t_array(t_address)dyn_storage": {
						"base": "t_address",
						"encoding": "dynamic_array",
						"label": "address[]",
						"numberOfBytes": "32"
					},
					"t_mapping(t_address,t_uint256)": {
						"encoding": "mapping",
						"key": "t_address",
						"label": "mapping(address => uint256)",
						"numberOfBytes": "32",
						"value": "t_uint256"
					},
					"t_uint256": {
						"encoding": "inplace",
						"label": "uint256",
						"numberOfBytes": "32"
					}
				}
			},
			"userdoc": {
				"kind": "user",
				"methods": {},
				"version": 1
			}
		}
	}
}